:020000040800F2
:10000000903D0020617E0008E1050008E30500083E
:10001000E7050008EB050008EF05000800000000F8
:10002000000000000000000000000000F3050008D0
:10003000F505000800000000F7050008F9050008B4
:100040007B7E00087B7E00087B7E00087B7E0008AC
:100050007B7E00087B7E00087B7E00081540000840
:100060007B7E0008AD3F0008771100087B7E00080A
:100070007B7E00087B7E00087B7E00087B7E00087C
:100080007B7E00087B7E00087B7E00087B7E00086C
:100090007B7E00087B7E00087B7E0008EB3E00082C
:1000A0007B7E00087B7E00087B7E00087B7E00084C
:1000B0007B7E0008DB3C0008A10400087B7E000872
:1000C0007B7E00087B7E00087B7E00087B7E00082C
:1000D0007B7E0008FB050008390600086B06000857
:1000E0007B7E00087B7E00087B7E00087B7E00080C
:1000F0007B7E00087B7E00087B7E00087B7E0008FC
:100100007B7E00087B7E00087B7E00087B7E0008EB
:100110007B7E00087B7E00087B7E00087B7E0008DB
:100120007B7E00087B7E00087B7E00087B7E0008CB
:10013000DFF80CD00AF002FE0048004791040008E6
:10014000903D002010B507F085FE07F01BFE4FF430
:10015000164004F062F848214FF47A7003F05BFD1A
:100160000121D84807F0BDFF10BD2DE9F04106463A
:100170000D46284609F072FF0746D3480068401C28
:10018000D1490860D1A1304609F03FFFB8B1D1484C
:10019000007808B1BDE8F081CFA1284609F035FF0D
:1001A00030B1012002F0ACFD0120CC4908707FE0A5
:1001B000002002F0A5FD0020C849087078E0C8A121
:1001C000304609F022FFB0B1C248007800B1E1E743
:1001D000C1A1284609F019FF30B1B42003F0FAFAA2
:1001E0000120C149087063E0002003F0F3FA002009
:1001F000BD4908705CE0BDA1304609F006FFB0B112
:10020000B448007800B1C5E7B3A1284609F0FDFE67
:1002100030B1012002F0ACFD0120B649087047E082
:10022000002002F0A5FD0020B249087040E0B2A114
:10023000304609F0EAFE60B1A7A1284609F0E5FEC4
:1002400018B10120A349087032E00020A1490870CC
:100250002EE0ABA1304609F0D8FE30B1284609F0B7
:10026000ECFE0446A848046022E0A8A1304609F04C
:10027000CCFE30B1284609F0E0FE0446A5480460F3
:1002800016E0A5A1304609F0C0FE30B1284609F0BD
:10029000D4FE0446A24804600AE0A2A1304609F058
:1002A000B4FE28B1284609F0C8FE04469F48046001
:1002B00000BF6FE710B5AFF24D119D4809F04FFE3A
:1002C0009C499D4809F04BFE06F00AFA9B480078CD
:1002D00008B101F0FCFF9A48007808B102F0B0F8CC
:1002E00010BD2DE9F04100240027002500267948A3
:1002F0000078002834D09348006883490968884210
:1003000001D9012000E0002004468F48006881499F
:100310000968884201D2012000E0002006468B488F
:1003200000687F490968884201D9012000E0002067
:100330000746864800687D490968884201D2012045
:1003400000E000200546304602F012FD80480770AC
:10035000284602F0D5FC614805706648067003E047
:10036000614800787A490870204602F007FD14B908
:100370000EB907B925B1012176A009F0A2FF03E06B
:10038000002174A009F09DFF05217148007803F059
:10039000B6FB7148017871A009F093FF4F480178CE
:1003A0006FA009F08EFF534801786EA009F089FF15
:1003B00021466DA009F085FFBDE8F08110B56B48BE
:1003C00009F060FE6AA009F098FF6BA16CA002F032
:1003D0008BFD6DA002F0EBF86EA002F0F9FAFFF7CA
:1003E00080FF6E49614809F0DEFE10BD10B54FF484
:1003F00080626B494E4809F0F9FC4FF4007269497C
:100400005A4809F03CFE4FF4807267494A4809F0A7
:10041000EDFC564809F052FF01234FF4FA62AFF2A7
:100420006301624809F0D0FF01236422AFF27B111F
:100430005F4809F0C9FF01234FF47A725D495E48B5
:1004400009F0C2FF01234FF47A725C495C4809F05D
:10045000BBFF01230A225B495B4809F0B5FF534803
:1004600009F0C0FF524809F0BDFF534809F0BAFF38
:10047000534809F0B7FF544809F0B4FF534805F05A
:100480001CFC4FF400725249524809F051FF10BD54
:10049000FFF7ACFFFFF756FE01E009F0C6FFFCE7EF
:1004A00010B501214C4809F0FEFB50B101214A482A
:1004B00009F00AFC09F0D4FF4848007808B105F0BB
:1004C0003BFD10BD000230003801002064656E67FE
:1004D000310000005E0100206F6E0000000000206F
:1004E00064756F6A69310000040000206A6471312C
:1004F0000000000001000020615F77656E310000A0
:100500006C5F77656E3100009C0100206C5F736842
:1005100069310000A40100206C5F67756131000043
:10052000900100206C5F677561320000940100202B
:1005300018320020E96A0008403600208A010020B5
:100540008D01002084000020A40000209C000020D9
:100550000500002062703100380200206431000084
:100560006432000064330000643400000C3000206A
:100570006F6E6C696E653100736869647531000077
:1005800077656E64753100006775616E67716961CA
:100590006E673100747572616E673100096600081C
:1005A0004032002018300020683600204C04002023
:1005B0005C0400208D6700086C040020B36700080D
:1005C0007C040020B96900088C0400200968000838
:1005D0007C37002068370020000800408801002098
:1005E000704700BFFEE700BFFEE700BFFEE700BFA9
:1005F000FEE7704770477047704708B540F22551D5
:10060000234808F07DF9B0B10020009040F2255158
:100610001F4808F09FF91E4808F0F2F8C0B2009099
:100620009DF800101B4809F093FE012269461A4804
:1006300009F0DBFC00BF08BD08B50020009040F2C7
:100640002551164808F05CF970B140F22551134865
:1006500008F080F9114808F0D3F8C0B200900122E8
:1006600069460F4809F0C1FC08BD10B540F225519C
:100670000C4808F045F950B1002440F225510948D2
:1006800008F068F9074808F0BBF8C4B200BF10BD15
:100690000038014068370020403600200044004008
:1006A00018320020004800400CB500200190009056
:1006B0006B48006840F480306949086000BF6848B2
:1006C000006800F4003000900198401C01900098F0
:1006D00018B90198B0F5A06FF1D16148006810F425
:1006E000003F02D00120009001E00020009000981F
:1006F000012842D15B48006840F010005949086069
:100700000846006820F0030008600846006840F0D2
:1007100002000860524840685149486008464068F5
:1007200048600846406840F4806048600846406879
:1007300020F47C1048600846406840F4E8104860A7
:100740000846006840F08070086000BF44480068B8
:1007500010F0007FFAD04248406820F00300404982
:1007600048600846406840F00200486000BF3C48CE
:10077000406800F00C000828F9D10CBD10B5FFF757
:1007800093FF10BD10B53648006840F001003449B1
:1007900008600846406834490840314948600846C6
:1007A0000068324908402E4908600846006820F475
:1007B000802008600846406820F4FE0048604FF43E
:1007C0001F008860FFF7DAFF4FF0006028490860DB
:1007D00010BD10B5002100200022214B5B6803F002
:1007E0000C0121B1042906D0082928D107E0214BAA
:1007F000214C236027E01F4B1F4C236023E0184B44
:100800005B6803F47010164B5B6803F480320223BC
:1008100003EB904022B9194B4343174C23600DE082
:100820000F4B5B6813F4003F04D0144B4343124C4E
:10083000236003E00F4B43430F4C236003E00D4B59
:100840000D4C236000BF00BF054B5B68C3F303136F
:100850000B4CE15C084B1B68CB40074C236010BD80
:1008600000100240002002400000FFF8FFFFF6FEEB
:1008700008ED00E000127A000800002000093D00A9
:100880000C00002038B50446102C77D2DFE804F0C5
:1008900008131E29343F4A55606B77828D98A3AEAA
:1008A0000120ADF8000000208DF803006946804863
:1008B00007F048FBA6E00220ADF8000000208DF80C
:1008C000030069467A4807F03DFB9BE00420ADF841
:1008D000000000208DF803006946754807F032FBE0
:1008E00090E00820ADF8000000208DF80300694674
:1008F0006F4807F027FB85E01020ADF800000020CE
:100900008DF8030069466A4807F01CFB7AE0202056
:10091000ADF8000000208DF803006946644807F038
:1009200011FB6FE04020ADF8000000208DF80300BF
:1009300069465F4807F006FB64E08020ADF80000E0
:1009400000208DF803006946594807F0FBFA59E08A
:100950000120ADF8000000208DF8030069465548DD
:1009600007F0F0FA4EE00220ADF8000000208DF80C
:10097000030069464F4807F0E5FA43E041E00120F3
:10098000ADF8000000208DF8030069464A4807F0E2
:10099000D9FA37E00220ADF8000000208DF80300FE
:1009A0006946454807F0CEFA2CE00420ADF8000077
:1009B00000208DF8030069463F4807F0C3FA21E0A4
:1009C0000820ADF8000000208DF8030069463A4881
:1009D00007F0B8FA16E01020ADF8000000208DF8FE
:1009E00003006946344807F0ADFA0BE02020ADF86B
:1009F000000000208DF8030069462F4807F0A2FA96
:100A000000E000BF00BF38BD10B586B004462046E8
:100A1000FFF738FF01214FF4017007F049FD4FF453
:100A2000004007F0ACFC254808F01CF800200190BD
:100A30008DF808008DF809004FF460200390002025
:100A4000049001208DF8140001A91C4808F031F829
:100A500001211A4808F059F8184808F078F800BF42
:100A6000164808F079F80028FAD1144808F07EF802
:100A700000BF124808F07FF80028FAD106B010BD78
:100A800010B50446E1B2072301220C4808F0A9F88A
:100A900001210A4808F079F800BF0221074808F050
:100AA000E5F90028F9D0054808F002F910BD00006A
:100AB00000080140000C01400010014000240140EA
:100AC00010B56148006820F470405F49086008462E
:100AD000006840F44050086000205C4908604FF016
:100AE000140007F08BF901205949C1F8AC011E2010
:100AF00007F061F910BD10B500245348006820F4D8
:100B00007040514908600846006840F400400860A1
:100B100004E0601CC4B2012007F04DF94D480068A4
:100B200008B1642CF5DB642C01DB012010BD00242E
:100B300004E0601CC4B2012007F03DF9454800689C
:100B400008B9642CF5DB642C01DB0120EEE7002002
:100B5000ECE710B5002404E0601CC4B2012007F0EB
:100B60002AF93C48006808B1642CF5DB002404E055
:100B7000601CC4B2012007F01EF93648006808B9AD
:100B8000642CF5DB282007F016F93248006808B11C
:100B9000012010BD0020FCE770B50024002506E010
:100BA0006006040EFFF7D5FF0443681CC5B2082D8C
:100BB000F6DB204670BD7CB505460E46FFF780FF8C
:100BC000FFF799FFF8B9002405E0FFF7E5FF0DF8FE
:100BD0000400601CC4B2052CF7DB9DF800009DF8F2
:100BE000011008449DF8021008449DF803100844C1
:100BF0009DF80410884208D19DF8000030709DF8DF
:100C00000200287001E001207CBD0020FCE710B547
:100C10000121082007F04CFC0B48006820F47040CC
:100C2000094908600846006840F4405008600648DA
:100C30000830006840F40060034908310860FFF79D
:100C40003FFFFFF758FF10BD040C0140AC8121426B
:100C5000008021422C81214210B500244FF48051A4
:100C6000B04807F01AFA322007F0A5F84FF4805187
:100C7000AC4807F014FA4FF4FA7007F09CF84FF400
:100C80008051A84807F009FA282007F094F800BF1F
:100C90004FF48051A34807F0E6F920B12046641CC8
:100CA000A1498842F4D34FF4FA7007F084F84FF466
:100CB00080519C4807F0F1F9284610BD70B50446F4
:100CC000082523E04FF48051964807F0E8F9052005
:100CD00007F071F814F0010F05D04FF480519148DE
:100CE00007F0DBF904E04FF480518E4807F0D7F9A4
:100CF000412007F060F84FF480518A4807F0CDF9A1
:100D0000022007F058F86410681EC5B2002DD9DC27
:100D100070BD70B54FF48051824807F0BEF90520D0
:100D200007F049F8082525E064104FF480517D480C
:100D300007F0B5F9052007F03EF84FF480517948E7
:100D400007F0ABF9052007F036F84FF480517548ED
:100D500007F089F910B144F0800401E004F07F0449
:100D6000412007F028F84FF480516E4807F095F9BC
:100D7000681EC5B2002DD7DC204670BD70B5044694
:100D80003320FFF79BFF082505E0FFF7C2FF207027
:100D9000641C681EC5B2002DF7DC70BD2DE9F04162
:100DA00006460C4615460027FFF756FFCC20FFF7F6
:100DB00085FF4E20FFF782FF2846FFF77FFF204682
:100DC000FFF77CFF3046FFF779FFFFF745FFCC20A8
:100DD000FFF774FF4820FFF771FF00BF4FF4805109
:100DE000504807F040F920B938467F1C4E498842E8
:100DF000F4D3BDE8F08110B5FFF72EFFCC20FFF74C
:100E00005DFF4420FFF75AFF10BD08B50121042003
:100E100007F04EFB4FF48050ADF8000014208DF821
:100E2000030003208DF8020069463E4807F08AF867
:100E300008BD10B5FFF7E9FF8A2264217F20FFF784
:100E4000ADFFFFF7D8FF10BD70B5FFF705FFCC2051
:100E5000FFF734FFBE20FFF731FFFFF75AFF0546CB
:100E6000FFF757FF0446FFF7F7FE14F0800F09D095
:100E7000E043C0B240F00804E843401CC5B20DB9DD
:100E8000601CC4B2200100EB1510C4B205F00F00C5
:100E900026490D5C264645EA0626FFF7ACFF2046AC
:100EA00070BD2DE9F05FFFF7D7FECC20FFF706FFFE
:100EB000BE20FFF703FFFFF72CFF8146FFF729FF56
:100EC0000446FFF7C9FE14F0800F0DD0E043C0B216
:100ED00040F008046FEA0900401C00F0FF09B9F176
:100EE000000F01D1601CC4B2200100EB1910C4B284
:100EF00009F00F000D4911F80090A24649EA0A2AAC
:100F0000FFF779FF504609F0C2FC07460022084B64
:100F100009F0BDFB054609F020FD83465846BDE8B3
:100F2000F09F00000008014020A107001C000020E5
:100F30000000B03F08B50121402007F0B9FA4FF496
:100F40008040ADF8000010208DF8030003208DF8DC
:100F5000020069468F4806F0F5FF4FF480418D4846
:100F600007F09BF808BD08B50121082007F0A0FA9A
:100F700048208DF803004FF48070ADF80000032086
:100F80008DF802006946844806F0DCFF08BD10B504
:100F900000244FF48071804807F065F804463CB99E
:100FA0007E480078012101EB40007C49087006E092
:100FB0007A480078FE2101EA4000784908707748B5
:100FC000007810F00F0F01D1002010BD0120FCE7C8
:100FD00008B50121082007F06BFA48208DF80300BE
:100FE0004FF40070ADF8000003208DF80200694650
:100FF000694806F0A7FF08BD08B50121082007F0E1
:1010000057FA48208DF803004FF40040ADF8000077
:1010100003208DF8020069465F4806F093FF08BD83
:1010200008B50121082007F043FA48208DF8030095
:101030001020ADF8000003208DF8020069465648E4
:1010400006F080FF08BD10B500241021524807F0BB
:101050000AF804463CB952480078012101EB4000EF
:101060004F49087006E04E480078FE2101EA400032
:101070004B4908704A48007810F0070F01D1002052
:1010800010BD0120FCE710B500244FF40071424868
:1010900006F0E9FF0446012C07D1424800780121FF
:1010A00001EB40003F49087006E03E480078FE2111
:1010B00001EA40003B4908703A48007810F00F0FF1
:1010C00001D1002010BD0120FCE710B500244FF431
:1010D0000041314806F0C7FF0446012C07D13248D1
:1010E0000078012101EB40002F49087006E02E48EE
:1010F0000078FE2101EA40002B4908702A48007858
:1011000010F00F0F01D1002010BD0120FCE71FB52A
:101110000121092007F0CCF91020ADF80400482087
:101120008DF8070001A91C4806F00CFF04210120DE
:1011300007F01CF81020029000208DF80C00082009
:101140008DF80D0001208DF80E0002A808F0CEFDEC
:101150004FF4E06007F018FC0A208DF80000002032
:101160008DF801008DF8020001208DF8030068461B
:1011700007F00FFC1FBD10B51021074806F073FFE4
:1011800020B10A480068401C08490860102008F097
:1011900024FE10BD00180140000C0140300000206A
:1011A0003100002032000020330000202C000020FD
:1011B00038B504463AA00068009003216846A0476D
:1011C00038BD2DE9F04706460D461746A946B046FC
:1011D000B9F1000F62DD58E018F8014B5A2C0AD122
:1011E000304800785A2806D101202F490870022083
:1011F0002E49087047E0452C07D12B48007801287C
:1012000003D10320294908703DE0042C10D1274860
:10121000007803280CD15A202549087048704520D1
:1012200088700420C87023490860204908702AE0AB
:101230001D480078012826D11C480078042822D1B6
:101240001C4801680068401C1A4A10601848445441
:101250001448047010460068092814DB14484079CB
:101260001349097940EA0120642190FBF1F0124909
:10127000086008460068B84700200B4908700D490F
:1012800008600A490870074804705FEA0900A9F17C
:10129000010903D0074800681E289DD3BDE8F087E8
:1012A000A515BA0038000020390000203A000020BF
:1012B0009C040020340000203C00002008B50121DF
:1012C000082007F0F5F80121082007F0F1F80120C7
:1012D000ADF8000010208DF8030003208DF8020007
:1012E00069463E4806F02EFE0220ADF80000482078
:1012F0008DF803006946394806F024FE012137487D
:1013000006F0CBFE08BD70B5002601203449086008
:1013100006F051FD00203349C1F88001002400BFD0
:101320002F48006820B13046761C2F498842F7D3F9
:10133000002513E001202D4908604FEA440406F01F
:101340003AFD00202749C1F880012548006800B116
:10135000641C012006F02FFD681CC5B2182DE9DBC6
:1013600001202249086084F4000406F024FD0020D6
:101370001C49C1F88001204670BD10B5FFF7C3FFBE
:101380001B49086010BD2DE9F047FFF7BCFF194964
:1013900008600846006816490968401A154908603F
:1013A00008460068002811DD0846006809F050FA78
:1013B000814609F0BFFA074600220F4B09F0D9F920
:1013C000054609F09EFA0B49086002E00020094931
:1013D0000860084804682046BDE8F087000C01401A
:1013E000048121420080214220A107008081214206
:1013F000400000204400002000A05A4010B54FF4E7
:101400000041FE4806F049FE4FF48041FB4806F0DB
:1014100044FE4FF48041F94806F041FE4FF400418C
:10142000F64806F03CFE10BD10B54FF40041F348FD
:1014300006F033FE4FF48041F04806F030FE4FF4E2
:101440008041EE4806F029FE10BD10B54FF4004172
:10145000EA4806F022FE4FF40041E84806F01FFE7D
:1014600010BD2DE9F04105462C464FF40041E348FC
:1014700006F015FE00261CE0274607F08007802FA7
:1014800004D1F901DD4806F008FE04E04FF4804184
:10149000DA4806F004FE6006040E4FF40041D74817
:1014A00006F0FBFD4FF40041D44806F0F8FD701C37
:1014B000C6B2082EE0DBBDE8F08110B50446FFF7A8
:1014C0009DFF7820FFF7CDFFFFF7BFFF0020FFF75C
:1014D000C8FFFFF7BAFF2046FFF7C3FFFFF7B5FFCE
:1014E000FFF7A2FF10BD10B50446FFF787FF782075
:1014F000FFF7B7FFFFF7A9FF4020FFF7B2FFFFF7A5
:10150000A4FF2046FFF7ADFFFFF79FFFFFF78CFF1B
:1015100010BD70B504460D461DB1E0B2FFF7E3FF04
:1015200002E0E0B2FFF7C9FF70BD70B506460024C7
:1015300018E004F1B0000021FFF7EBFF002108469E
:10154000FFF7E7FF00211020FFF7E3FF002505E08C
:1015500001213046FFF7DDFF681CC5B2802DF7DBA7
:10156000601CC4B2082CE4DB70BD70B504460D46A7
:1015700005F1B0000021FFF7CCFF102141EA141063
:101580000021FFF7C6FF04F00F000021FFF7C1FFA5
:1015900070BD10B500218D20FFF7BBFF0021142086
:1015A000FFF7B7FF0021AF20FFF7B3FF10BD10B565
:1015B00000218D20FFF7ADFF00211020FFF7A9FFCC
:1015C0000021AE20FFF7A5FF10BD70B5002418E084
:1015D00004F1B0000021FFF79CFF00210846FFF74F
:1015E00098FF00211020FFF794FF002505E001215E
:1015F0000020FFF78EFF681CC5B2802DF7DB601C52
:10160000C4B2082CE4DB70BD2DE9F04707460E4656
:101610009046994600250024A8F12000C5B27F2FEE
:1016200002DD0027B01CC6B2B9F1100F24D131463B
:101630003846FFF79AFF002408E004EB0511704AD2
:10164000505C0121FFF765FF601CC4B2082CF4DB7D
:10165000701CC1B23846FFF788FF002409E004EB94
:1016600005110831664A505C0121FFF752FF601CEA
:10167000C4B2082CF3DB12E031463846FFF775FFA1
:1016800000240AE005EB45015E4A02EB4101085DDA
:101690000121FFF73EFF601CC4B2062CF2DBBDE85F
:1016A000F0872DE9F04104460F461546984600267E
:1016B0000FE0AA5D434639462046FFF7A5FF04F137
:1016C0000800C4B2782C02DD0024B81CC7B2701C1C
:1016D000C6B2A85D0028ECD1BDE8F0812DE9F0414B
:1016E00080460E461546002731464046FFF73DFF2F
:1016F00000240AE0444A02EB8511085D0121FFF74E
:1017000008FF781CC7B2601CC4B2102CF2DB701C3E
:10171000C1B24046FFF729FF00240CE06900491CD4
:10172000394A02EB4111085D0121FFF7F2FE781CF6
:10173000C7B2601CC4B2102CF0DBBDE8F0812DE90B
:10174000F05F06460F4690461C46DDF828A04FF095
:10175000000BE11704EB5171C910B4EBC10106D1C4
:101760002046E11704EB5171C1F3C70506E020469E
:10177000E11704EB5171C910491CCDB23D4615E08B
:1017800029463046FFF7F1FEB1460BE059460BF112
:10179000010B1AF801000121FFF7BBFE09F101005E
:1017A00000F0FF09C145F1DB681CC5B2A542E7DBCB
:1017B000BDE8F09F08B50121102006F079FE4FF436
:1017C0004040ADF8000010208DF8030003208DF894
:1017D00002006946094806F0B5FB4FF4404107484E
:1017E00006F05BFC4FF4FA7006F008FB0021AE2017
:1017F000FFF78FFE0021084608E0000000100140BE
:101800001CB90008F4B600080CBF0008FFF781FE01
:1018100000211020FFF77DFE00214020FFF779FE18
:101820000021B020FFF775FE00218120FFF771FE37
:101830000021FF20FFF76DFE0021A120FFF769FEC8
:101840000021A620FFF765FE0021A820FFF761FE1A
:1018500000213F20FFF75DFE0021C820FFF759FE61
:101860000021D320FFF755FE00210846FFF751FE67
:101870000021D520FFF74DFE00218020FFF749FE13
:101880000021D820FFF745FE00210520FFF741FE8B
:101890000021D920FFF73DFE0021F120FFF739FE9E
:1018A0000021DA20FFF735FE00211220FFF731FE7C
:1018B0000021DB20FFF72DFE00213020FFF729FE5D
:1018C00000218D20FFF725FE00211420FFF721FEC7
:1018D0000021AF20FFF71DFEFFF777FE08BD0000D7
:1018E00030B589B005460C460121C80206F0E0FD7E
:1018F0000121042006F0DCFD4FF40060ADF820006B
:1019000018208DF8230003208DF8220008A95748DD
:1019100006F018FB681E80B2ADF81800601E80B299
:10192000ADF814000020ADF81A00ADF8160005A9B6
:101930004F4807F093FB7020ADF804000120ADF88C
:1019400006000020ADF80A00ADF80C0001A94848D7
:1019500007F09BFC0121464807F0E8FE08214448B7
:1019600008F027F80121424807F0D4FF0121404840
:1019700007F0D0FE09B030BD10B50446632C00DD81
:101980006324C4F16300C4B22146394808F060F909
:1019900010BD10B50446632C00DD6324C4F1630060
:1019A000C4B22146324808F04DF910BD30B589B0B7
:1019B00005460C460121084606F087FD012104205A
:1019C00006F076FD0C20ADF8200018208DF82300DD
:1019D00003208DF8220008A9244806F0B3FA681EF7
:1019E00080B2ADF81800601E80B2ADF8140000207F
:1019F000ADF81A00ADF8160005A94FF0804007F0C9
:101A00002DFB7020ADF804000120ADF80600002089
:101A1000ADF80A00ADF80C0001A94FF0804007F0C6
:101A2000E9FB01A94FF0804007F02FFC0121880756
:101A300007F07CFE0821C80607F0B2FF0821C8069F
:101A400007F0B7FF0121880707F064FF012188072D
:101A500007F060FE63214FF0804008F0F7F8632143
:101A60004FF0804008F0F4F809B030BD00080140A4
:101A7000002C0140002107E0002200E0521C4EF63D
:101A800060239A42FAD3491C8142F5D3704708B5C6
:101A90000121042006F00CFD4FF48050ADF8000049
:101AA00010208DF8030002208DF802006946FE48E0
:101AB00006F048FA0121082006F0FAFC4020ADF8B3
:101AC000000004208DF8030002208DF80200694612
:101AD000F64806F037FA0121082006F0E9FC4FF439
:101AE0008070ADF8000010208DF8030002208DF802
:101AF00002006946ED4806F025FA0121082006F0AB
:101B0000D7FC4FF40050ADF8000010208DF8030012
:101B100002208DF802006946E44806F013FA01211C
:101B2000082006F0C5FC4FF40040ADF8000010207E
:101B30008DF8030002208DF802006946DB4806F0AC
:101B400001FA08BD2DE9F04106460D464FF400515B
:101B5000D64806F0A4FA4FF40041D44806F09FFAA4
:101B60007E2000EA460708241BE017F0800F05D00E
:101B70004FF48071CD4806F090FA04E04FF4807184
:101B8000CA4806F08CFA4FF40051C84806F085FAAE
:101B90007806070E4FF40051C44806F080FA601E24
:101BA000C4B2002CE1DC08241BE015F0800F05D046
:101BB0004FF48071BD4806F070FA04E04FF4807174
:101BC000BA4806F06CFA4FF40051B84806F065FACE
:101BD0006806050E4FF40051B44806F060FA601E26
:101BE000C4B2002CE1DC4FF40041B04806F055FAD5
:101BF0004FF40051AD4806F050FABDE8F0812DE9F0
:101C0000F041064600254FF40041A84806F047FA87
:101C10007E2000EA460040F0800708241BE04FF4D5
:101C20000051A24806F03BFA17F0800F05D04FF4A0
:101C300080719E4806F031FA04E04FF480719B48B1
:101C400006F02DFA4FF40051984806F026FA78066F
:101C5000070E601EC4B2002CE1DC082415E04FF42E
:101C60000051924806F01BFA6806050E4FF4005129
:101C70008E4806F012FA40218C4806F0F4F901284B
:101C800001D145F00105601EC4B2002CE7DC4FF421
:101C90000041864806F001FA4FF40051834806F0EF
:101CA000FCF92846BDE8F08170B505460C460026D3
:101CB0002846FFF7A4FF064646EA04012846FFF738
:101CC00041FF70BD70B505460C4600262846FFF75B
:101CD00096FF064626EA04012846FFF733FF70BD4B
:101CE0002DE9FE4F0646884691469A46DDF830B00B
:101CF000FE2002900020019000900C2E06D00E2EA7
:101D000009D1122001901020009005E07720019069
:101D10003020009000E000BF00BF019840F080013B
:101D20000220FFF70FFF80210420FFF7CBFF0021E7
:101D30000120FFF707FF80210A20FFF7B5FF0025EC
:101D400005E018F805100920FFF7FCFE6D1C4D4555
:101D5000F7D331460120FFF7F5FE0C2E03D1802189
:101D60000D20FFF7A1FF4FF4FA6500BF0420FFF735
:101D700046FF04466D1E2DB114F0010F02D10098EC
:101D80000442F3D080210D20FFF79CFF95B306207D
:101D9000FFF735FF10F01B0F2DD1002002900198A6
:101DA000204010F0010F01D0FF2002900C2E24D112
:101DB0000A20FFF724FF04460C20FFF720FF00F065
:101DC00007072FB1601E07EBC000CBF8000002E050
:101DD000E000CBF8000004B90124122C00DD12242D
:101DE000002505E00920FFF70AFF0AF805006D1C31
:101DF000A542F7D301E0FE20029080210C20FFF7DE
:101E000053FF00210120FFF79DFE0298BDE8FE8FE1
:101E100070B588B005460C4608210846FFF752FF0A
:101E200007210D20FFF78EFE03211420FFF73CFF52
:101E30008DF8085007A802AB012202A900900C20DF
:101E4000FFF74EFF06464EB90798102806D19DF8B9
:101E5000080020709DF80900607000E0FE26304602
:101E600008B070BDF0B587B00546002708210846C8
:101E7000FFF728FF00210D20FFF764FE80210E20D0
:101E8000FFF720FF93208DF8040020208DF8050037
:101E900006A801AB022201A900900C20FFF720FF49
:101EA0000646A6B900240BE000080140000C0140E2
:101EB00001A8005D285501A8005D4740601CC4B220
:101EC000042CF5DB01A8005DB84200D0FE2680217D
:101ED0000E20FFF7E9FE304607B0F0BD2DE9F041D6
:101EE00007468846154604210520FFF7EBFE002132
:101EF0000120FFF727FE80210A20FFF7D5FE0024EE
:101F000005E0395D0920FFF71DFE601CC4B24445A1
:101F1000F7DB03210120FFF715FEFF2400BF05209A
:101F2000FFF76DFE0646601EC4B214B116F0040F32
:101F3000F5D02220FFF763FE28702120FFF75FFE17
:101F40006870BDE8F08170B588B0054693208DF8C3
:101F5000080070208DF8090000208DF80E00002484
:101F60000BE0295D02AAA01C11549DF80E00295D0A
:101F700048408DF80E00601CC4B2042CF1DB0DF15A
:101F80000F02072102A8FFF7A9FF08210846FFF763
:101F900099FE07A802AB092202A900900C20FFF7C6
:101FA0009FFE064626B90798182801D1002600E0B2
:101FB000FE26304608B070BD2DE9F04387B00646D6
:101FC0000F46904699468DF804608DF80570002400
:101FD00006E018F8041001AAA01C1154601CC4B239
:101FE000062CF6DB002407E019F8041001AA04F11E
:101FF00008001154601CC4B2062CF5DB06A801AB26
:102000000C2201A900900E20FFF76AFE05462DB9AB
:102010000820FFF7F4FD10F0080F00D1FE25284638
:1020200007B0BDE8F083F0B587B005460E46302016
:102030008DF804008DF805500DF10602022101A86B
:10204000FFF74CFF06A801AB042201A900900C2069
:10205000FFF746FE074667B90698902809D1002485
:1020600004E001A8005D3055601CC4B2102CF8DB00
:1020700000E0FE27384607B0F0BDF0B587B0064651
:102080000F46A0208DF804008DF805600DF10602C2
:10209000022101A8FFF722FF06A801AB042201A933
:1020A00000900C20FFF71CFE054645B90698042851
:1020B00005D19DF8040000F00F000A2800D0FE258D
:1020C0000DBB002404E0385D01A90855601CC4B2B2
:1020D000102CF8DB05AA102101A8FFF7FFFE06A8C7
:1020E00001AB122201A900900C20FFF7F9FD054673
:1020F00045B90698042805D19DF8040000F00F00AA
:102100000A2800D0FE25284607B0F0BD00B587B0EC
:1021100050208DF8040000208DF805000DF1060216
:10212000022101A8FFF7DAFE06A801AB042201A9EB
:1021300000900C20FFF7D4FD002007B000BD10B5C3
:102140004FF480514A4805F0A8FF0120FFF792FCA8
:102150004FF48051464805F0A2FF0120FFF78AFCAA
:102160004FF48051424805F098FF0A20FFF782FCA7
:102170000220FFF744FD802802D12820FFF77AFCD7
:102180000F210120FFF7DEFC3D211120FFF7DAFCD3
:102190001E212D20FFF7D6FC00212C20FFF7D2FCBA
:1021A0008D212A20FFF7CEFC3E212B20FFF7CAFC11
:1021B00040211520FFF7C6FC002010BD10B51420EB
:1021C000FFF71DFD044614F0030F03D10321142073
:1021D000FFF76AFD10BD10B50446412C25D108213A
:1021E0000846FFF76FFD3D211120FFF7ABFC86216C
:1021F0001720FFF7A7FC7F212620FFF7A3FC1E2155
:102200002D20FFF79FFC00212C20FFF79BFC8D2148
:102210002A20FFF797FC3E212B20FFF793FC01209B
:10222000FFF728FCFFF7CAFF01E0FF2010BD0020E8
:10223000FCE710B503211420FFF744FD10BD38B5AD
:1022400015E069465220FFF7E3FD044664B1694694
:102250005220FFF7DDFD044634B169465220FFF7F6
:10226000D7FD044604B138BD0A20FFF703FCE8E7B8
:102270000008014010B500240520FEF701FC0446CB
:10228000F9480068A04201D2F7480460F7480068A6
:10229000401CF649086008460068642816DB0020E8
:1022A0000860F1480168F24802680068401CF04B81
:1022B0001860F04840F822100020EB4908601846EA
:1022C0000068142802D300201946086010BD10B51C
:1022D0004FF40051E84805F0C6FEE8490A6809686D
:1022E000491CE64B1960E34941F822001846006892
:1022F000142802D300201946086010BD70B50646A8
:1023000000240025DE48007840B90120DC4908702F
:102310000520FEF779FB0120DA490870002405E06A
:10232000D44850F824000544601CC4B2142CF7D3E0
:10233000142095FBF0F000F11405D34805603146F8
:102340000268D248006807F0B0FE70BD38B5054697
:102350000024CF480078E0B90120CD490870012160
:10236000082006F0A5F84FF40050ADF80000482012
:102370008DF8030003208DF802006946BE4805F081
:10238000E1FD4FF40051BC4805F089FE0120C14930
:1023900008700020C0490860002409E0B54850F8E2
:1023A000240018B10120BC49086003E0601CC4B2DD
:1023B000142CF3D300BFB84829460268B34800681C
:1023C00007F073FE38BD38B505460024B3480078E1
:1023D000E0B90120B14908700121082006F068F831
:1023E0004FF40050ADF8000048208DF803000320A2
:1023F0008DF802006946A04805F0A4FD4FF4005195
:102400009D4805F04CFE0120A24908700020A24919
:102410000860002409E0974850F8240018B901200A
:102420009D49086003E0601CC4B2142CF3D300BFC4
:102430009948294602689548006807F036FE38BD7D
:1024400070B500240025002695480068401C94497A
:1024500008604FF48051884805F005FE04464FF4AB
:102460000051854805F0FFFD05464CB18D480078C8
:1024700030B98B4800688C49086001208B4908708E
:102480004DB18B48007830B98548006889490860AB
:1024900001208949087085480078002841D0864885
:1024A000007800283DD08048006882490968884249
:1024B00005DD7D4800687F490968401A04E07D48D1
:1024C000006879490968401A06460A2E1CDA7648DF
:1024D000006878490968884205DD78480068401C32
:1024E000764908600AE070480068724909688842C5
:1024F00004DA73480068401C7149086000206B4989
:1025000008706D4908700CE06748006869490968FF
:10251000884203DD00206849087002E0002063491A
:102520000870604804706248057070BDF8B50646D2
:102530000024002563480078E0B901206149087053
:102540000121082005F0B4FF4FF40050ADF8000061
:1025500048208DF8030003208DF8020069464648A4
:1025600005F0F0FC4FF40051434805F098FD0120C0
:1025700048490870002405E03E4850F8240005440E
:10258000601CC4B2142CF7D3122D03D901204E497C
:10259000086004E0102D02D200204B4908604B482F
:1025A000314602683948006807F07FFDF8BD70B514
:1025B000054604F074FB0446C4F58050C11700EBD7
:1025C000D1614C11002C00DA0024224629462F4804
:1025D000006807F06AFD3E48046070BD70B50546AE
:1025E00004F06DFB04463B480078042806DA3A48BC
:1025F000046038480078401C364908703648006846
:10260000844204D934480068201A440900E00024B8
:10261000224629461D48006807F047FD2F48046000
:1026200070BD70B5054604F04AFB04462C4800789E
:10263000042806DA2B48046029480078401C284901
:10264000087028480068844204D926480068201A87
:10265000440900E0002424480460224629460B482F
:10266000006807F022FD70BD6C02002068020020A7
:1026700064020020F0040020000C014070020020E1
:10268000740200208B01002014010020400400206F
:10269000750200208A01002010010020760200202F
:1026A00078020020840200207C02002086020020A4
:1026B0008502002080020020870200204C010020BB
:1026C00050010020880200206000002068000020E7
:1026D0009C000020900200208C020020C8000020F6
:1026E0009802002094020020D000002070B505461A
:1026F00004F0F5FA0446F8480078042806DAF748AA
:102700000460F5480078401CF3490870F3480068FD
:10271000844204D9F1480068201A440900E00024EA
:10272000EF48046022462946EE48006807F0BDFCE9
:1027300070BD70B5054604F0D2FA0446EA48007848
:10274000042806DAE9480460E7480078401CE649B6
:102750000870E6480068844204D9E4480068201AFA
:10276000440900E00024E248046022462946DD488E
:10277000006807F09AFC70BD70B5054604F040FA99
:102780000446DC480078042806DADB480460D948AF
:102790000078401CD7490870D7480068844204D9A3
:1027A000D5480068201A440900E00024D34804609A
:1027B00022462946CB48006807F077FC70BD70B50B
:1027C000054604F05CFA0446CD480078042806DA91
:1027D000CC480460CA480078401CC9490870C94800
:1027E0000068844204D9C7480068201A440900E000
:1027F0000024C548046022462946BA48006807F00C
:1028000054FC70BD70B5054604F059FA0446BF4843
:102810000078042806DABE480460BC480078401CF2
:10282000BA490870BA480068844201D9640900E0D6
:102830000024B848046022462946AA48006807F0E8
:1028400034FC70BD70B5054604F0EAF9044664092D
:10285000802C01D9802000E020460446282C01D29B
:10286000282000E020460446C4F18004AA48046001
:10287000224629469B48006807F017FC70BD70B5DA
:10288000054604F00CFA04466409802C01D9802026
:1028900000E020460446282C01D2282000E02046F3
:1028A0000446C4F180049C480460224629468D48B1
:1028B000006807F0FAFB70BD70B5054604F0A0F99A
:1028C00004466409282C01D2282000E02046044652
:1028D000412C01D9412000E020460446283CA400B8
:1028E0008E480460224629467E48006807F0DDFBDA
:1028F00070BD70B5054604F0D2F904466409282C71
:1029000001D2282000E020460446412C01D9412074
:1029100000E020460446283CA4008048046022468B
:1029200029467048006807F0C0FB70BD70B50646C8
:102930007B48007820B9012079490870FEF764F8D7
:102940000120FEF79DF80446B4F5006F02D2C4F5ED
:10295000006501E0A4F5006505EB45104FF4CD716D
:10296000B0FBF1F46F480078032806DA6E490C706A
:102970006C480078401C6B4908706B4800788442B2
:1029800003D969480078241A02E067480078041BDC
:10299000032C00D200246548046031460268514887
:1029A000006807F082FB70BD70B5054604F028F999
:1029B0000446640904EB840000EB4010C4095C4841
:1029C0000460224629464748006807F06EFB70BD48
:1029D00070B5054604F053F9044664097F2C01D90B
:1029E0007F2000E020460446C4F17F0422462946A9
:1029F0003C48006807F059FB4E48046070BD70B554
:102A0000054604F06CF904466409802C00D9802442
:102A1000C4F18004484804602246294631480068D1
:102A200007F043FB70BD70B5064604F048F9054653
:102A30006D09622D0DD3A5F1620000EB800040000E
:102A40003721B0FBF1F4072C00D90724C4F10705A6
:102A50000BE0C5F1620000EB800040003E21B0FBBE
:102A6000F1F4072C00D90724E51D344805602A46F7
:102A700031461C48006807F018FB70BD2DE9F04195
:102A800088B0804604F01BF9064607F0EAFE0546CA
:102A90004FF08441284607F0BAFD054628492846EC
:102AA00007F082FF54D82649284607F074FD0746F0
:102AB000244907F076FD0646234907F0A8FD0446A1
:102AC0002249204607F070FF00D2204C21461F48C3
:102AD00007F061FD054653E0A00200209C020020A3
:102AE000CC00002040040020A8020020A402002006
:102AF000D4000020B0020020AC020020D80000204A
:102B0000B8020020B4020020DC000020C002002037
:102B1000BC0200202C010020E0000020A0000020CA
:102B2000C3020020C2020020C1020020B000002029
:102B3000AC000020A4000020E4000020E8000020F9
:102B40000000C4420000204100005C420000E04060
:102B50002946FA4807F01FFD0746F94907F021FD0D
:102B60000646F84907F053FD0446F749204607F0AA
:102B70001BFF00D2F44C2146F34807F0BAFC05468F
:102B8000F2480560006807F0D5FE064632460B465F
:102B9000EFA1684608F034F96A464146ED480068FE
:102BA00007F0D2FA08B0BDE8F08170B5054604F030
:102BB00037F80446640922462946E648006807F0CB
:102BC00074FAE548046070BD70B5044604F06CFC0E
:102BD0000546E24805602A462146DE48006807F0BF
:102BE00064FA70BD70B5044604F084FC0546DC4808
:102BF00005602A462146D748006807F056FA70BD9E
:102C000070B5044604F050FC05460DB9012000E003
:102C10000020D4490860084621460268CD48006873
:102C200007F043FA70BD70B5044604F0D4FA0546C7
:102C30000DB9012000E00020CA490860084621467D
:102C40000268C448006807F030FA70BD70B50446E9
:102C500004F0E4FA05460DB9012000E00020C14966
:102C60000860084621460268BA48006807F01DFA65
:102C700070BD70B5044604F089FC05460DB901200D
:102C800000E00020B7490860084621460268B148C4
:102C9000006807F00AFA70BD70B5044604F055FAF2
:102CA00005460DB9012000E00020AE490860084645
:102CB00021460268A748006807F0F7F970BD70B5B3
:102CC000044604F065FA05460DB9012000E0002035
:102CD000A44908600846214602689E48006807F03B
:102CE000E4F970BD70B5044604F02AFC05469E4820
:102CF00005602A4621469748006807F0D6F970BD5E
:102D000010B50446204604F063FE10BD10B504461D
:102D1000204604F089FE10BD9449096809B9934919
:102D2000086093490860704710B50446204604F0D7
:102D3000D3FE10BD10B50446204604F0F9FE10BDC8
:102D400010B50446204604F01FFF10BD10B5044620
:102D5000204604F011FE10BD10B50446204604F0D4
:102D6000E3FD10BD10B50446204604F0B5FD10BDCE
:102D700010B50446204604F068FD10BD10B50446A9
:102D8000204604F001FF10BD10B50446204604F0B3
:102D900027FF10BD70B504460D467648007830B95F
:102DA0000120744908707449086002F059FA7348A8
:102DB000214602686748006807F077F9704829469D
:102DC00002686448006807F070F970BD70B5054688
:102DD0006C48007820B901206A490870FEF7F8F8BD
:102DE000FEF751F90446224629465A48006807F082
:102DF0005CF96548046070BD70B5054663480078AD
:102E000020B9012061490870FEF7F6F8FEF75DF978
:102E10000446224629464F48006807F046F95C48B8
:102E2000046070BD70B505465A48007820B901208D
:102E300058490870FEF797F8FEF7A9F804462246AD
:102E400029464448006807F030F95348046070BDD3
:102E500070B505465148007820B901204F490870E7
:102E6000FEF7DEF8FEF7EFF8044622462946394819
:102E7000006807F01AF94A48046070BD10B50446AE
:102E80004848007838B901204649087002F08CFEA5
:102E90000120454908704548007848B10020434961
:102EA00008704348027821462A48006807F0FDF878
:102EB00010BD10B504463F48007838B901203D499F
:102EC000087002F071FE0120374908703A48007816
:102ED00048B10020384908703848027821461D481A
:102EE000006807F0E2F810BD7CB504460D460020EE
:102EF000019000903248007820B9012030490870D4
:102F0000FDF785FE694601A8FDF755FE9DF80420F2
:102F100021461048006807F0C8F89DF800202946AF
:102F20000C48006807F0C1F89DF8040025490860C6
:102F30009DF80000244908607CBD00000000C442E8
:102F400000002041000078420000E040EC0000203A
:102F50002566000040040020A4000020500000204E
:102F60006400002058000020680000205401002068
:102F700058010020C4020020780100202401002014
:102F800028010020C502002094000020C602002075
:102F900098000020C7020020C4000020C8020020C2
:102FA00054000020C90200208801002030010020C8
:102FB00031010020CA02002032010020330100202C
:102FC000CB020020840000208800002070B5054658
:102FD000FE48007830B90120FC490870FEF76EF910
:102FE000FEF7CBF9FEF7CFF90446F948006803284D
:102FF00006D2F8480460F6480068401CF4490860AE
:10300000F4480068844203D9F2480068241A00E0BA
:10301000002422462946F048006807F046F8EF48A9
:10302000046070BD70B50546ED48007830B90120E8
:10303000EB490870FEF742F9FEF79FF9FEF7A3F996
:1030400004464FF4FA70B4FBF0F4322C00D20024A2
:103050000CB1E2480460E14829460268DE48006895
:1030600007F023F870BD70B50546DE48007828B932
:103070000120DC490870032000F03AFE01F057F807
:10308000064607F02AFC044622462946D248006834
:1030900007F00BF8D448046070BD70B50546D348FE
:1030A000007828B90120D1490870022000F020FEE4
:1030B00001F034F8064607F010FC04462246294683
:1030C000C548006806F0F1FFC948046070BD70B5DE
:1030D0000546C848007820B90120C6490870FDF7A8
:1030E000A8FEFDF7B1FE0446C34804602246294607
:1030F000B948006806F0D9FF70BD2DE9F0410546DA
:10310000BE48007820B90120BC490870FDF791FE47
:10311000FDF7C7FE0446204607F0C6FB804607F0D1
:1031200097FB0746214607F039FA0646204607F086
:10313000BBFB0746C01707EB10700011AE490860D3
:103140000846006807F08DFB0746314607F0D1F9C5
:10315000044622462946A048006807F094F8BDE8D6
:10316000F08170B58AB00546A548007868B901209D
:10317000A3490870FEF78BFCFEF7E1FFFFF759F853
:10318000FFF71CF84120FFF726F807A92620FEF7D5
:103190003FFE0446FCB907A8FEF764FE0446D4B916
:1031A0009DF81F009DF81E10CDE900109DF81D3000
:1031B0009DF81C2093A102A807F022FE06460020DD
:1031C00002A9885502AA29468348006806F0BCFF78
:1031D00001200AB070BD0020FBE738B504468E48D8
:1031E0000078E0B901208C4908700121082005F021
:1031F0005FF94FF48050ADF8000048208DF80300CF
:1032000003208DF802006946844804F09BFE4FF4C9
:103210008051824804F041FF0120814908708148B3
:1032200005682A4621466C48006806F03EFF38BD16
:1032300038B504460D467C48007828BB01207A4901
:1032400008700121082005F033F94FF48050ADF8E3
:10325000000048208DF8030003208DF80200694625
:103260006E4804F06FFE4FF40050ADF800004820A7
:103270008DF8030003208DF802006946674804F0CA
:1032800061FE012069490870694821460268524878
:10329000006806F00AFF6748294602684E48006841
:1032A00006F003FF38BD70B504460025624800787B
:1032B00020B9012060490870FDF729FF5F480068C8
:1032C0005F490968451AED082A46214642480068C8
:1032D00006F0EBFE70BD10B504465A48007820B9E0
:1032E000012058490870FDF712FF544800685649FC
:1032F00008605248026821463748006806F0D5FE4B
:1033000010BD10B504465148007848B901204F4916
:1033100008704FF4E13000F029FF01204C4908709B
:103320004C4803F0F5F84C48214602682A480068EA
:1033300006F0BBFE10BD10B504464848007848B9F9
:103340000120464908704FF4E13000F00FFF0120E2
:10335000434908703F48FDF72BFF42482146026869
:103360001D48006806F0A1FE10BD2DE9F04104469D
:103370000F4615461E463C48007848B901203A4998
:1033800008704FF4165000F0F1FE01203749087024
:10339000304803F0ABFB3348214602680E48006812
:1033A00006F083FE2F48394602680B48006806F095
:1033B0007CFE2C48294602680748006806F075FE26
:1033C0002848314602680448006851E0D4020020D1
:1033D000D0020020CC02002040040020C0000020C9
:1033E000D5020020D602002048000020D70200208D
:1033F0004C000020D80200208C000020D9020020C0
:10340000DA02002025303258253032582530325823
:103410002530325800000000DB020020000C014083
:103420008101002044010020DC0200208D010020E9
:103430004C01002050010020DD0200202C00002063
:10344000E0020020E40200203C010020E502002010
:1034500085010020CF43000804010020E60200207F
:1034600084010020F0000020E702002082010020FB
:1034700006F01BFEBDE8F08110B50446FB4800785D
:1034800048B90120F94908704FF4165000F06EFE5B
:103490000120F7490870F74821460268F64800689D
:1034A00006F003FE10BD70B504460E461546F348FF
:1034B000007848B90120F14908704FF4E13000F07C
:1034C00055FE0120EE490870EE4801F097F9EE48EC
:1034D00021460268E848006806F0E7FDEB483146FF
:1034E0000268E548006806F0E0FDE9482946026800
:1034F000E148006806F0D9FD70BD70B504460D4680
:10350000E448007848B90120E24908704FF41650A9
:1035100000F02CFE0120E0490870DA4802F0E8FAD9
:10352000DE4821460268D448006806F0BEFDDC484B
:1035300029460268D048006806F0B7FD70BD70B536
:1035400004460D46D748007848B90120D54908708F
:103550004FF4165000F00AFE0120D3490870D348FA
:10356000007858B1D24A2146C348006806F0ECFD05
:10357000D04A2946C048006806F0E6FD70BD10B587
:103580000446CD48007830B90120CB4908704FF48B
:10359000165000F0EBFD0A2C00DD0A24012C00DAA5
:1035A0000124611EC1EBC101C44A8818072100F043
:1035B0000EFF10BD70B504460D461646C048007893
:1035C00020B90120BE49087001F020F83246294692
:1035D000204601F01FF870BD10B50446B9480078C8
:1035E00020B90120B749087001F010F8204601F019
:1035F0002DF810BD10B50446B348007820B901205D
:10360000B149087001F002F8204601F028F810BD19
:1036100010B50446AD48007820B90120AB490870C8
:1036200000F0F4FF204601F023F810BD70B5044609
:103630000D461646A648007820B90120A449087016
:1036400001F01FF832462946204601F01EF870BDF1
:1036500010B504469F48007820B901209D490870A4
:1036600001F00FF8204601F02BF810BD10B504460C
:103670009948007820B901209749087001F001F8B5
:10368000204601F026F810BD10B504469348007896
:1036900020B901209149087000F0F3FF204601F0A5
:1036A00021F810BD70B504460D4616468C480078CA
:1036B00020B901208A49087001F01DF832462946D8
:1036C000204601F01CF870BD10B50446854800780E
:1036D00020B901208349087001F00DF8204601F05F
:1036E0002AF810BD10B504467F48007820B90120A3
:1036F0007D49087000F0FFFF204601F025F810BD5D
:1037000010B504467948007820B90120774908703F
:1037100000F0F1FF204601F020F810BD70B504461E
:103720000D4616467248007820B90120704908708D
:1037300001F01CF832462946204601F01BF870BD06
:1037400010B504466B48007820B90120694908701B
:1037500001F00CF8204601F029F810BD10B5044620
:103760006548007820B901206349087000F0FEFF29
:10377000204601F024F810BD10B504465F480078DB
:1037800020B901205D49087000F0F0FF204601F0EB
:103790001FF810BD10B504465948007830B9012013
:1037A0005749087001216420FEF79AF82046FEF779
:1037B000E3F810BD10B504465248007830B9012036
:1037C0005049087001216420FEF78AF82046FEF770
:1037D000E0F810BD70B5044600BF4B48007840B912
:1037E0000120494908704FF434714FF4FA60FEF734
:1037F00077F8B42C00D9B424254605EB8500800069
:103800001221B0FBF1F000F2D665A9B23F4806F0F4
:103810001FFA70BD2DE9F04104460D4616461F46BD
:103820003B48007830B9012039490870FDF7C2FFE4
:10383000FDF7AFFE3B46324629462046FDF731FFF5
:10384000BDE8F08170B505460E4614463148007853
:1038500030B901202F490870FDF7ACFFFDF799FE44
:10386000E2B231462846FDF739FF70BDE80200207C
:10387000860100200801002040040020E902002009
:103880007F010020CF430008180100201C01002008
:1038900020010020EA020020870100208000002093
:1038A0007C000020EB02002080010020830100202A
:1038B000D2040020E1040020EC0200208CC00008AB
:1038C000ED020020EE020020EF020020F0020020B6
:1038D000F1020020F2020020F3020020F402002096
:1038E000F5020020F6020020F7020020F802002076
:1038F000F9020020FA020020FB020020FC02002056
:10390000FD020020FE020020FF020020002C0140EA
:10391000000300200103002010B504468F48006812
:1039200006F0B0FB8E4A8FA18C48006806F00CFCB4
:10393000224691A18948006806F006FC8F49874815
:10394000006806F030FC10BD10B5014600200A46A4
:1039500004E012F8013B824C2354401C0B28F8DB96
:1039600000237F4CE37210BD30B5024600201146A3
:10397000834B1B7823B90123814C2370814C237026
:103980000B78322B0CD106E011F8015B0346441C86
:10399000E0B27D4CE5541328F6DB00237A4C235427
:1039A00030BD30B50146002208460378302B0FDBCE
:1039B0000378392B0CDC06E010F8015B1346541C2D
:1039C000E2B2724CE554062AF6DB00236F4CA35496
:1039D00030BD2DE9F041002400276B4D00266C48D6
:1039E0000068401C6A4908602846807C30382946B7
:1039F000497C303901EB810100EB41022846C07B54
:103A000030382946897B303901EB810100EB4100D8
:103A1000C0EB001002EB80045D480068844203D9CB
:103A20005B480068201A02E059480068001B0746FE
:103A3000032F01D95648046006E015F8012B3046E3
:103A4000711CCEB253490A540B2EF6DB2D2051497E
:103A50000871C87100208872002606E015F8012B55
:103A60003046711CCEB24C490A54082EF6DB3A207F
:103A700049498870487100200872454800683C2117
:103A8000B0FBF1F201FB12000A21B0FBF1F201FBE5
:103A9000120030304049C8713D4800683C21B0FBFD
:103AA000F1F201FB12000A21B0FBF1F030303A498B
:103AB0008871374800683C21B0FBF1F00A21B0FB67
:103AC000F1F201FB120030303349087130480068D0
:103AD0003C21B0FBF1F00A21B0FBF1F030302E496F
:103AE000C87008232B4A00211020FFF793FE0823FB
:103AF000294A01211620FFF78DFEBDE8F08170B53F
:103B000004460D462548007838B90120234908703D
:103B100002F046FB01202249087022480078A042AA
:103B200004D00020204908701E4804701E48007808
:103B3000A84207DA1C480078401C1B4908701B4843
:103B4000047002E002201949087070BD184800781E
:103B500010B9012016490870704700004004002089
:103B6000390200206366675F70686F6E655F6E750F
:103B70006D62657200000000736D7300E74300081A
:103B80000203002089010020460200205B02002081
:103B900004030020BC040020C80400200803002007
:103BA0008E0100200A0300200903002038020020B3
:103BB0008C0100207FB505460C460121022004F04F
:103BC00084FC681E80B2ADF80800601E80B2ADF8BB
:103BD00004000020ADF80A00ADF8060001A926484F
:103BE00005F03CFA01221146234805F0AEFD1D20E8
:103BF0008DF8000000208DF8010003208DF80200F0
:103C000001208DF80300684604F0C3FE01211A4824
:103C100005F080FD7FBD7FB505460C4601210420DF
:103C200004F053FC681E80B2ADF80800601E80B23C
:103C3000ADF804000020ADF80A00ADF8060001A9B7
:103C40000E4805F00BFA012211460C4805F07DFDE7
:103C50001E208DF8000000208DF8010003208DF853
:103C6000020001208DF80300684604F092FE012155
:103C7000024805F04FFD7FBD0004004000080040F1
:103C80007FB505460C460121022004F01EFC681E8B
:103C900080B2ADF80800601E80B2ADF804000020CC
:103CA000ADF80A00ADF8060001A9FC4805F0D6F908
:103CB00001221146F94805F048FD1D208DF800004D
:103CC00000208DF8010003208DF8020001208DF8FE
:103CD0000300684604F05DFE7FBD10B50121EF488A
:103CE00005F0E1FF18B10121EC4805F0EDFF10BD32
:103CF0001FB5044648214EF66020FFF7C1FF0121A1
:103D0000E74804F0EEF90121092004F0D1FB012C71
:103D100006D0022C3DD0032C75D0042C72D1A9E022
:103D20004FF48070ADF80C0010208DF80F000320C8
:103D30008DF80E0003A9DB4804F004F98020ADF8EB
:103D40000C0028208DF80F0003A9D64804F0FAF8DB
:103D50000721012004F00AFA8020019000208DF84C
:103D6000080008208DF8090001208DF80A0001A83C
:103D700005F0BCFF17208DF8000002208DF801002F
:103D80008DF8020001208DF80300684604F001FE62
:103D9000A9E04020ADF80C0010208DF80F000320A2
:103DA0008DF80E0003A9BF4804F0CCF82020ADF830
:103DB0000C0028208DF80F0003A9BA4804F0C2F8BF
:103DC0000521012004F0D2F92020019000208DF877
:103DD000080008208DF8090001208DF80A0001A8CC
:103DE00005F084FF17208DF8000002208DF80100F7
:103DF0008DF8020001208DF80300684604F0C9FD2B
:103E000071E000E06EE01020ADF80C008DF80F00BE
:103E100003208DF80E0003A9A24804F093F80820AF
:103E2000ADF80C0028208DF80F0003A99D4804F080
:103E300089F80321012004F099F90820019000205D
:103E40008DF8080008208DF8090001208DF80A007F
:103E500001A805F04BFF09208DF8000002208DF825
:103E600001008DF8020001208DF80300684604F07F
:103E700090FD38E00420ADF80C0010208DF80F0004
:103E800003208DF80E0003A9864804F05BF880201B
:103E9000ADF80C0028208DF80F0003A9814804F02C
:103EA00051F80121084604F061F902200190002038
:103EB0008DF8080008208DF8090001208DF80A000F
:103EC00001A805F013FF07208DF8000002208DF8EF
:103ED00001008DF8020001208DF80300684604F00F
:103EE00058FD00E000BF00BF1FBD2DE9F0410A20D2
:103EF00003F061FF802005F05FFF40B300216748B9
:103F000005F09CFE0121654805F004FC00BF8021FE
:103F1000644804F0A8F80028F9D100215F4805F0B2
:103F2000F9FB5E4805F0ADFE00EB001044002046B2
:103F300006F09CFC054600225B4B06F01AFC074687
:103F400006F00BFD59490860802005F046FF20204F
:103F500005F032FF40B30021504805F06FFE01210B
:103F60004E4805F0D7FB00BF20214E4804F07BF8F7
:103F70000028F9D10021494805F0CCFB474805F05D
:103F800080FE00EB00104400204606F06FFC054662
:103F90000022454B06F0EDFB074606F0DEFC4449E7
:103FA0000860202005F019FFBDE8F0812DE9F041FF
:103FB0000A2003F000FF082005F0FEFE40B30021B8
:103FC000364805F03BFE0121344805F0A3FB00BF55
:103FD0000821344804F047F80028F9D100212F487F
:103FE00005F098FB2D4805F04CFE00EB0010440056
:103FF000204606F03BFC054600222B4B06F0B9FBA1
:10400000074606F0AAFC2B490860082005F0E5FEEB
:10401000BDE8F0812DE9F0410A2003F0CCFE02203A
:1040200005F0CAFE40B300211C4805F007FE01213F
:104030001A4805F06FFB00BF02211A4804F013F87C
:104040000028F9D10021154805F064FB134805F05C
:1040500018FE00EB00104400204606F007FC054661
:104060000022114B06F085FB074606F076FC12494C
:104070000860022005F0B1FEBDE8F08110B54FF4F4
:104080008071084804F009F8142003F094FE4FF4FE
:104090008071044804F003F810BD000000040040E3
:1040A00000023000000C014000409F400C03002043
:1040B00010030020140300201803002010B5402135
:1040C000244803F0EAFF142003F075FE4021214844
:1040D00003F0E5FF10BD10B510211E4803F0DDFF11
:1040E000142003F068FE10211A4803F0D8FF10BD19
:1040F00010B50421174803F0D0FF142003F05BFE35
:104100000421144803F0CBFF10BD10B5FFF7B6FF34
:10411000114803F050FE1148006810BD10B5FFF7BC
:10412000CDFF0D4803F047FE0D48006810BD10B5E7
:10413000FFF7D1FF084803F03EFE0A48006810BDB3
:1041400010B5FFF7D5FF044803F035FE06480068B8
:1041500010BD0000000C0140400D03000C030020C6
:1041600010030020140300201803002010B586B0AF
:1041700004460121042004F09BF90121084604F0C3
:1041800097F90121880304F093F94FF40070ADF81A
:10419000140018208DF8170003208DF8160005A9CB
:1041A000AB4803F0CFFE4FF48060ADF8140004205C
:1041B0008DF8170005A9A64803F0C4FE019400205D
:1041C000ADF80800ADF80A00ADF80C00ADF810002D
:1041D0000C20ADF80E0001A99E4804F014FA01224B
:1041E00040F225519B4804F0A6FA0121994804F0B9
:1041F00096FA4021974804F07AFB25208DF80000BC
:1042000000208DF801008DF8020001208DF80300D8
:10421000684604F0BEFB06B010BD10B586B004467B
:104220000121042004F044F90121480404F04DF96F
:104230000121084604F03CF90420ADF814001820D0
:104240008DF8170003208DF8160005A9804803F0AB
:1042500079FE0820ADF8140004208DF8170005A998
:104260007B4803F06FFE01940020ADF80800ADF824
:104270000A00ADF80C00ADF810000C20ADF80E00EF
:1042800001A9754804F0BFF9012240F22551724896
:1042900004F051FA0121704804F041FA40216E48BF
:1042A00004F025FB26208DF8000000208DF8010089
:1042B00001208DF802008DF80300684604F069FBC8
:1042C00006B010BD10B586B004460121102004F0E0
:1042D000EFF80121880404F0F8F80121084604F001
:1042E000E7F801215D4803F0FCFE4FF48060ADF873
:1042F000140018208DF8170003208DF8160005A96A
:10430000574803F01FFE4FF40060ADF8140004207E
:104310008DF8170005A9524803F014FE01940020FF
:10432000ADF80800ADF80A00ADF80C00ADF81000CB
:104330000C20ADF80E0001A94A4804F064F90122EE
:1043400040F22551474804F0F6F90121454804F0B0
:10435000E6F94021434804F0CAFA27208DF800000E
:1043600000208DF8010001208DF802008DF8030077
:10437000684604F00EFB06B010BD10B50446214699
:10438000354804F039FA00BF8021334804F0A2FA1E
:104390000028F9D010BD10B5044621462D4804F080
:1043A0002BFA00BF80212B4804F094FA0028F9D0A2
:1043B00010BD10B5044621462A4804F01DFA00BF7E
:1043C0008021284804F086FA0028F9D010BD70B585
:1043D00005460E46002403E0285DFFF7DCFF641C61
:1043E000B442F9D370BD70B505460E46002403E013
:1043F000285DFFF7C2FF641CB442F9D370BD70B5ED
:1044000005460E46002403E0285DFFF7D2FF641C3A
:10441000B442F9D370BD70B505462C4603E0207850
:10442000FFF7ABFF641C20780028F8D170BD70B591
:1044300004460D46E1B2084804F0DEF900BF8021D1
:10444000054804F047FA0028F9D0204670BD000066
:1044500000080140003801400044004010001400F2
:10446000001001400048004008B50121102004F070
:104470001FF84FF40050ADF8000010208DF8030035
:1044800003208DF802006946D64803F05BFD08BDA5
:1044900008B50121082004F00BF88020ADF80000D9
:1044A00010208DF8030003208DF802006946CE48E5
:1044B00003F048FD08BD08B50121082003F0F8FF0E
:1044C0004FF48070ADF8000010208DF80300032039
:1044D0008DF802006946C44803F034FD08BD08B5F4
:1044E0000121082003F0E4FF4FF48040ADF8000004
:1044F00010208DF8030003208DF802006946BA48A9
:1045000003F020FD08BD01B502E00098401E0090B8
:1045100000980028F9D108BD002001E0411CC8B274
:104520000B28FBDB7047704700B5014603E040F203
:104530008660FFF7E8FF0800A1F10101F7D100BD97
:1045400070B504460D462946204603F0A6FDFFF748
:10455000EAFF2946204603F0A2FDFFF7DDFF70BD0C
:1045600070B504460D462946204603F096FDFFF738
:10457000D3FF2946204603F092FDFFF7D4FF70BD1C
:1045800070B504460D462946204603F088FD3220CA
:10459000FFF7B9FF2946204603F07FFD2946204654
:1045A00003F07DFD70BD2DE9F04106460F4614462F
:1045B000002510E004F40000B0F5000F04D13946E6
:1045C0003046FFF7CDFF03E039463046FFF7B8FF2E
:1045D0006400681CC5B2182DECDBBDE8F0812DE944
:1045E000F0410746884614461D46002606E02A4646
:1045F00041463846FFF7D7FF701CC6B2A642F6DB2D
:1046000041463846FFF7BCFFBDE8F08110B5FFF723
:104610002BFF10BD2DE9F04105460E46174600243C
:10462000724805704670877000BF44EA064424F45F
:104630007F4444EA052424F0FF043C4322464FF41F
:1046400000516848FFF7AFFFBDE8F08110B50446A0
:104650006648827841782046FFF7DCFF10BD10B530
:10466000044662498A7808782146FFF7D3FF10BDD7
:1046700010B504465D4A517810782246FFF7CAFF0C
:1046800010BD10B5FFF704FF10BD2DE9F041054640
:104690000E4617460024564805704670877000BFC6
:1046A00044EA064424F47F4444EA052424F0FF0449
:1046B0003C43224680214C48FFF775FFBDE8F0815E
:1046C00010B504464A48827841782046FFF7DDFF5E
:1046D00010BD10B5044646498A7808782146FFF790
:1046E000D4FF10BD10B50446414A517810782246D7
:1046F000FFF7CBFF10BD10B5FFF7DDFE10BD2DE9B4
:10470000F04105460E46174600243A4805704670AB
:10471000877000BF44EA064424F47F4444EA052439
:1047200024F0FF043C4322464FF480712E48FFF7EB
:104730003AFFBDE8F08110B504462E4882784178F2
:104740002046FFF7DCFF10BD10B5044629498A78E2
:1047500008782146FFF7D3FF10BD10B50446254A5F
:10476000517810782246FFF7CAFF10BD10B5FFF749
:10477000B6FE10BD2DE9F04105460E461746002451
:104780001D4805704670877000BF44EA064424F453
:104790007F4444EA052424F0FF043C4322464FF4BE
:1047A00080411148FFF7FFFEBDE8F08110B50446D7
:1047B0001148827841782046FFF7DCFF10BD10B524
:1047C00004460D498A7808782146FFF7D3FF10BDCB
:1047D00010B50446084A517810782246FFF7CAFF00
:1047E00010BD000000100140000C01402403002017
:1047F000270300202A0300202D03002038B504469B
:104800002FA00068009002216846A04738BD2DE91E
:10481000FF5F05460C4616462746A946002F4CDD8D
:1048200043E019F8018B274801680068401C254ABD
:104830001060254800F801800078AA2804D00020E4
:1048400011460860204908701E48006808282CD1CD
:104850001D48C079552825D11B4880781A494978C8
:1048600040EA01200FFA80FB174800791649C97801
:1048700040EA01200FFA80FA1348807912494979F9
:1048800040EA012000B203906421039890FBF1F00C
:1048900002909BFBF1F001909AFBF1F00090DDE9B2
:1048A0000112B0470020074908603800A7F101074E
:1048B00003D0044800681E28B3D3BDE8FF9F000062
:1048C000A5510000300300204005002030B50C4603
:1048D000012213E050F82230114605E04D1E50F839
:1048E000255040F82150491E002904DD4D1E50F886
:1048F00025509D42F2DC40F82130521CA242E9DBF7
:1049000030BDF0B503461546012217E051F82240AC
:10491000104605E0461E51F8266041F82060401E12
:10492000002808DD53F82470461E51F8266053F81D
:104930002660B742EEDC41F82040521CAA42E5DB7B
:10494000F0BD2DE9F04F05460C46924698462946A3
:1049500050462268FFF7D5FF4FF0FF3620E0D4F82D
:1049600000B0701C2060771C17E055F82710701CF1
:1049700001D1401E01E055F82600A1EB0009C14518
:1049800003DCC8F10000814506DA55F827102268DB
:10499000501C206045F822107F1C5F45E5DB761C2B
:1049A0002068B042DBDC28462168FFF78FFFBDE8B6
:1049B000F08FF0B505461C46059E012000270F60CC
:1049C00030E052F82070B7422BDD52F820C0471E6D
:1049D00052F82770BC4524DD012300E05B1CC7189A
:1049E000A74207DA52F8207000EB030C52F82CC0F3
:1049F0006745F3D052F8207000EB030C52F82CC03E
:104A000067450CDD0F680F2F09DAD1F800C00CF1F3
:104A100001070F6045F82C005F1C384402E0184481
:104A200000E0401C671E8742CBDCF0BD2DE9F84753
:104A300005460C4616461F46DDE90A9ADDF8248035
:104A40003B46324621462846CDF80080FFF7B1FFAD
:104A50004B46324621462846FFF773FF20685045F3
:104A600001DA206800E050462060BDE8F8872DE9B3
:104A7000FF4FC6B08846994600204590002406E0C6
:104A8000469850F82410459808444590641C4445C5
:104A9000F6DB4598B0FBF8F04590002408E0469816
:104AA00050F824104598081AFE4941F82400641C67
:104AB0004445F4DB002417E0FA4850F8241002467D
:104AC000601C52F820000144A01C52F82000014450
:104AD000E01C52F820000F183846F91707EB9171C7
:104AE000891042F82410641CB4F5F87FE4DB00243C
:104AF0000AE0EC49601C51F8200051F82410401ADB
:104B0000E94941F82400641CB4F5F77FF1DD002485
:104B10000EE0E54951F824200B46611C53F82110A2
:104B2000501800EBD07149101A4642F82410641C4A
:104B3000B4F5F77FEDDB00251BE0002043902C4609
:104B40000BE0D94850F82410601BD84A32F81020E6
:104B5000439801FB12004390641C681D8442F0DB03
:104B600040F27A41439890FBF1F0CF4941F825009B
:104B70006D1CB5F5F47FE0DD00204190002410E0CD
:104B8000C94850F82400002803DDC74850F8240025
:104B900003E0C54850F82400404241990844419040
:104BA000641CB4F5F77FEBDD40F2EF11419890FB08
:104BB000F1F0419005210822419840F2EF13CDE930
:104BC00001210090B84A40A912A8FFF72FFF00204A
:104BD00011904098022821DB01240BE012A850F824
:104BE0002410601E12AA52F82000091A11980844D5
:104BF0001190641C40988442F0DB4098401E11994B
:104C000091FBF0F0119041F27071119891FBF0F16D
:104C10005498016001215598017005E0A449549809
:104C20000160002155980170002407E012A850F897
:104C30002400801C30A941F82400641C4098844260
:104C4000F4DB00240CE0469850F82400954941F824
:104C50002400489850F82400964941F82400641C28
:104C60004445F0DB0020429000242DE001204490D8
:104C700030A850F824A04FF080703F900AF1050052
:104C8000B0F5F77F1FDC0A3800281CDD054611E06F
:104C9000844850F825103F9881420ADA449808B1B8
:104CA000002044907F4850F825003F9021A840F80C
:104CB00024506D1C0AF105008542E9DB449810B9C7
:104CC0004298401C4290641C40988442CEDB42983B
:104CD000022808DA7648C9F80000002153980170CC
:104CE0004AB0BDE8F08F00242EE06E4951F8242030
:104CF0000B46611C53F821100A44A11C53F82110E3
:104D00000A44E11C53F821105018C11700EB9171AF
:104D100089101A4642F82410664951F824200B469F
:104D2000611C53F821100A44A11C53F821100A44B5
:104D3000E11C53F821105018C11700EB9171891034
:104D40001A4642F82410641CB4F5F87FCDDB00202D
:104D500004900026002404E0002005A941F8240066
:104D6000641C052CF8DB00240DE021A850F8240079
:104D7000B0F5FA7F06DD4E48C9F8000000215398CF
:104D80000170ADE7641C42988442EEDB0024AEE083
:104D90004FF07F400D900C9021A9601C51F820002D
:104DA00051F82410401A0A287ADD21A850F824501E
:104DB00016E03C4850F825100C98814204DD394833
:104DC00050F825000C900A953A4850F825100D9897
:104DD000814204DD374850F825000D900B956D1C7D
:104DE00021A9601C51F82000A842E2DC601C51F8A7
:104DF0002000304951F8200021A951F824102D4AF3
:104E000052F82110401A21A951F824200B99891A2F
:104E10004843109021A9601C51F8200051F824103B
:104E2000411A109890FBF1F021A951F82410214A61
:104E300052F821100844109011460B9851F8201098
:104E40001098081A109021A9601C51F820001549EB
:104E500051F8200021A951F82410124A52F82110CB
:104E6000401A21A951F824200A99891A48430F9021
:104E700021A9601C51F8200051F82410411A0F9804
:104E800090FBF1F021A951F82410064A52F82110A4
:104E900008440F9011460B9851F820100F980BE022
:104EA00024E00000200D002060050020D2C0000892
:104EB00019FCFFFFF0140020081A0F900C991098AD
:104EC0004843C01103900D990F984843C711002F14
:104ED0000CDD052E0ADA039840B16421039848439B
:104EE00090FBF7F005A941F82600761C641C429857
:104EF000401EA0423FF74CAF314605A8FFF7E6FC45
:104F0000304606EBD0714FEA610BBBF1010F0CDDAF
:104F1000ABF1010105AA52F8211052F82B20881894
:104F200000EBD0714910049103E005A850F82B0064
:104F30000490049802280DDD0498B8280ADA09497B
:104F40000498085C0E900E98C9F80000012153984F
:104F5000017005E00448C9F8000000215398017071
:104F600000BFBDE610C1000819FCFFFF70B5054683
:104F70000C4600F00FFCAE2000F0C6FC00F051FC27
:104F800000B111E0284600F0BFFC00F04AFC00B17F
:104F90000AE0204600F0B8FC00F043FC00B103E05A
:104FA00000F01CFC012070BD00F018FC0020FAE7A6
:104FB00070B5044600F0EEFBAE2000F0A5FC00F05A
:104FC00030FC00B119E0204600F09EFC00F029FC06
:104FD00000B112E000F0DEFBAF2000F095FC00F025
:104FE00020FC00B109E0002000F0BEFC054600F006
:104FF00067FC00F0F3FB284670BD00F0EFFB0020DB
:10500000FAE72DE9F04782460C46174600253E4652
:1050100000F0C0FBAE2000F077FC00F002FC00B115
:105020003FE0504600F070FC00F0FBFB00B138E0C0
:1050300000F0B0FBAF2000F067FC00F0F2FB00B125
:105040002FE029E0002000F08FFC804600F014FCE7
:10505000002000F089FC814600F00EFC49EA08209F
:1050600024F82500002000F07FFC804600F004FCBE
:10507000002000F079FC8146012E02D100F020FCD6
:1050800001E000F0F9FB49EA082004EB85014880C3
:10509000701EC6B2681CC5B2002ED3D100F09EFBB4
:1050A00000BF00F09BFBBDE8F08770B505460C46DD
:1050B0000020FFF77DFF0120FFF77AFF00F06AFB79
:1050C000AE2000F021FC00F0ACFB00B12AE0284645
:1050D00000F01AFC00F0A5FB00B123E000F05AFB41
:1050E000AF2000F011FC00F09CFB00B11AE00120A1
:1050F00000F03AFC2070012000F036FC60700120C6
:1051000000F032FCA070012000F02EFCE0700120C5
:1051100000F02AFC2071002000F026FC607100F0F5
:105120005DFB00BF00F05AFB70BD10B540210920A7
:10513000FFF71CFF40210920FFF718FF10BD08B53D
:105140000121082003F0B4F94FF40070ADF800001D
:1051500048208DF803006946FE4802F0F3FE00F097
:10516000FFFAFFF7E2FFC0210220FFF7FFFE002158
:105170000320FFF7FBFE00210420FFF7F7FE0021CC
:105180000520FFF7F3FE00210620FFF7EFFE0F21B9
:105190000820FFF7EBFE03210920FFF7E7FE272198
:1051A0000A20FFF7E3FE24210C20FFF7DFFE242175
:1051B0000D20FFF7DBFE7F211020FFF7D7FE08BD93
:1051C00070B504460D462A462146AE2000F069FC23
:1051D00070BD70B504460D462A462146AE2000F04B
:1051E00041FC70BDFEB506460C46002030602060D4
:1051F00002A9FFF7EEFF02A90120FFF7EAFF06234D
:105200006A460721AE2000F0FEFB9DF800502D04F9
:105210003068284430609DF801502D0230682844E1
:1052200030609DF802503068284430609DF803508B
:105230002D042068284420609DF804502D02206829
:10524000284420609DF8055020682844206030687C
:10525000C0F3110030602068C0F311002060FEBD73
:105260003EB5FFF76CFFBC48BC4908600020BC4954
:1052700008604FF4FA70BB4908600020BA49086022
:1052800052E000BFB9480068012804D12046641CE0
:10529000B7498842F6D3B7490720FFF706FFB5485C
:1052A00000788007800BB349497840EA0120B14972
:1052B00089780843B049AC4A126841F82200AD48E9
:1052C000C0788007800BAB49097940EA0120A949E1
:1052D00049790843A949A44A126841F82200A6481E
:1052E000A149096850F821009C490968884206D202
:1052F000A1489D49096850F82100984908609E48D6
:105300009949096850F8210095490968884206D9E9
:1053100099489549096850F82100914908609248D8
:105320000068401C904908608F4800688D490968F2
:105330008842A6DB90488C49096850F821009049C2
:10534000086090489049914A914BCDE90021029024
:10535000894A844801688948FFF789FB3EBDFEB54C
:1053600004460D467C487D49086000207C49086061
:105370006420884908603AE07F488649096850F807
:1053800021108448006864387B4A42F820107B482A
:105390008049096850F821107E4800686438774ACF
:1053A00042F8201074487B49096850F821006B4985
:1053B0000968884206D270487649096850F8210089
:1053C000664908606C487349096850F821006449CF
:1053D0000968884206D968486E49096850F8210072
:1053E0005F4908606B480068401C6A49086069486A
:1053F0000068B0F5FA7FBFDB4FF4C87065490860FC
:10540000E2E064480068401E5B4951F820005C49B6
:10541000086000BF554800680128FBD055490720A7
:10542000FFF743FE534800788007800B51494978C5
:1054300040EA01204F49897808434F49554A12688C
:1054400041F822004B48C0788007800B4949097910
:1054500040EA012047494979084348494D4A1268C2
:1054600041F8220044484B49096850F8210044495A
:105470000968884231D94049464A126851F82210D9
:105480003F4A1268881A05F0ECF94349086034492C
:105490000968324A1268881A05F0E3F9064631466F
:1054A0003D48006805F0B3F83B4908603B493A487D
:1054B000006805F076F8384908600846006805F08D
:1054C000F3F937490968081A354908600846006841
:1054D000002833DA0020086030E027492D4A12689E
:1054E00051F82210264A1268501A05F0BAF92A49D2
:1054F00008601B490968194A1268881A05F0B1F951
:10550000064631462448006805F081F822490860C3
:1055100022492148006805F044F81F490860084600
:10552000006805F0C1F91E49096808441C49086073
:1055300008460068FF2801DDFF2008601148007858
:10554000012837D111480078012833D10E4800785E
:10555000144929E0000C0140FFFF03006003002014
:10556000640300204C0300206C03002024812142AE
:105570000048E80178030020B0240020E01C00204F
:10558000680300205C03002058030020540300201F
:1055900050030020440300207403002000007F43D8
:1055A00070030020410300200870614800786149C1
:1055B000087004E00020604908705E4908705F4888
:1055C0000068401C5D4908605C480068B0F5FA7FDF
:1055D000FFF617AF5A485B495B4A554BCDE90021AE
:1055E00002905A4A5A4801685A48FFF740FA54480C
:1055F0000078012812D15448007801280ED1514872
:10560000006882280ADA4A480068652806DA4D48A8
:105610000068206046480068286017E04848007825
:1056200001280ED14848007801280AD14548006871
:10563000C82806DA4348006820603D4800682860B2
:1056400004E0002020602860401EFEBD0020FCE732
:105650002DE9FC4105460E4600240027694601A8B5
:10566000FFF77DFE3C483D4A127800EBC2000099EE
:1056700041603A4802780078401C384B0199187014
:10568000354840F8321018460078042802DB002024
:105690001946087008E0304850F83400002801DD51
:1056A000012703E0601CC4B2042CF4DB00BFC7B3C5
:1056B000294850F8340050280ADD274850F83400B3
:1056C0000A2190FBF1F201FB12005030286017E034
:1056D000214850F834004B2809DD1F4951F8341097
:1056E00001F1460000EBD0714910296008E01A4929
:1056F00051F8341001F14B0000EBD07149102960D2
:10570000154800EBC4004068322804DA63201249CF
:1057100001EBC4014860104800EBC40040683060F1
:1057200003E0FFE7002028603060BDE8FC81000056
:1057300050030020420300204103002044030020C6
:105740005C0300205803002054030020B0240020F4
:105750004C030020E01C0020C01C00204803002057
:1057600008B50121082002F0A3FE4FF4C070ADF887
:10577000000010208DF8030003208DF80200694618
:10578000D54802F0DFFB0120D4490860D449C1F8B4
:10579000A00108BD10B5D048001D006820F00F0022
:1057A000CD49091D08600846006840F00700086000
:1057B0000120CC490860CA49C1F89C014FF004009F
:1057C00002F0F9FA0020C74908604FF0040002F027
:1057D000F2FA0020C249C1F89C0110BD10B5BE48C4
:1057E000001D006820F00F00BB49091D0860084635
:1057F000006840F0070008600020B8490860B84918
:10580000C1F8A0014FF0040002F0D5FA0120B3491D
:105810000860B349C1F8A0014FF0040002F0CBFAD0
:1058200010BD10B50024AC48001D006820F00F002A
:10583000A949091D08600846006840F00400086096
:105840000120A849086002F0B6FA0120A449C1F875
:105850009C0102F0B0FA07E0601CC4B2FA2C03DD30
:10586000FFF7BCFF012010BD9F4800680028F3D15E
:105870009A49086000BFF6E710B500209749086014
:105880009A48006820F00F009849086008460068B0
:1058900040F0070008604FF000009149C1F8A001F6
:1058A0004FF0020002F087FA01208C4908604FF0A7
:1058B000020002F080FA00208949C1F89C0110BD65
:1058C00010B50020854908608848006820F00F0066
:1058D000864908600846006840F0070008604FF0FD
:1058E00001007F49C1F8A0014FF0020002F063FA05
:1058F00001207A4908604FF0020002F05CFA0020B3
:105900007749C1F89C0110BD70B50446774800681E
:1059100020F00F00754908600846006840F0070055
:10592000086000206D49086005461AE0E0096D49ED
:1059300008604FEA44604FEA10644FF0020002F042
:105940003AFA01206649C1F89C01022002F033FABC
:105950000020624908604FF0020002F02CFA681C37
:10596000C5B2082DE2DB70BD70B5054600245F4866
:10597000006820F00F005D4908600846006840F0AC
:1059800004000860002616E00020544908604FF02B
:10599000020002F010FA01205149C1F89C01600692
:1059A000040E5148006808B1601CC4B2012002F026
:1059B00002FA701CC6B2082EE6DB15B9FFF780FFAD
:1059C00001E0FFF759FF204670BD2DE9F041074681
:1059D0000D461646FFF7DEFE3846FFF795FFFFF748
:1059E00020FF002406E0285DFFF78EFFFFF719FF78
:1059F000601CC4B2B442F6DBFFF7F0FE0A2002F0EE
:105A0000FDF9BDE8F0812DE9F041074688461446CE
:105A10001D46FFF7BFFE3846FFF776FFFFF701FF91
:105A20004046FFF771FFFFF7FCFE47F00100FFF76C
:105A30006BFFFFF7F6FE002605E00120FFF794FF5D
:105A4000A055701CC6B2681EB042F6DC0020FFF7FD
:105A50008BFF691E6054FFF7C1FE0A2002F0CEF9E9
:105A6000BDE8F08170B504460D461646FFF792FE7C
:105A70002046FFF749FFFFF7D4FE2846FFF744FF13
:105A8000FFF7CFFEFFF786FE44F00100FFF73CFF73
:105A9000FFF7C7FE0020FFF767FF3070FFF79EFE9D
:105AA00070BD70B506460C461546FFF773FE3046CE
:105AB000FFF72AFFFFF7B5FE2046FFF725FFFFF7A8
:105AC000B0FE2846FFF720FFFFF7ABFEFFF786FE8C
:105AD0000A2002F093F970BD000C01409C81214224
