:020000040800F2
:1000000038100020491D0008990A00089B0A0008C2
:100010009F0A0008A30A0008A70A000800000000C1
:10002000000000000000000000000000AB0A000813
:10003000AD0A000800000000AF0A0008B10A00087D
:10004000631D0008631D0008631D0008631D000890
:10005000631D0008631D0008631D00081B1B0008CA
:10006000631D0008B31A0008631D0008631D000823
:10007000631D0008631D0008631D0008631D000860
:10008000631D0008631D0008631D0008631D000850
:10009000631D0008631D0008631D0008F1190008B6
:1000A000631D0008631D0008631D0008631D000830
:1000B000631D00085B19000895090008631D00080E
:1000C000631D0008631D0008631D0008631D000810
:1000D000631D0008B30A0008E70A0008190B0008AE
:1000E000631D0008631D0008631D0008631D0008F0
:1000F000631D0008631D0008631D0008631D0008E0
:10010000631D0008631D0008631D0008631D0008CF
:10011000631D0008631D0008631D0008631D0008BF
:10012000631D0008631D0008631D0008631D0008AF
:10013000DFF80CD003F0B4FF004800478509000841
:100140003810002070B505460C46A1B2284601F0D3
:1001500090FB70BD2DE9F041F74CF8A5FEA62046B6
:1001600003F016FE074639462046FFF7EBFF304600
:1001700003F00EFE074639463046FFF7E3FF2846F8
:1001800003F006FE074639462846FFF7DBFFBDE8C9
:10019000F08138B50446F8480078C8B90120F6491E
:1001A00008700121082002F0F7F84FF48060ADF8E4
:1001B000000010208DF8030003208DF8020069462E
:1001C000EE4801F033FE4FF48061EC4801F0DBFEB5
:1001D0002CB14FF48061E94801F0D5FE04E04FF402
:1001E0008061E64801F0CDFE38BD10B5E4480068F6
:1001F000401CE3490860084600681E21B0FBF1F28C
:1002000001FB1200022801D1FFF7A4FF10BD70B559
:1002100004460D461646DB48007830B90120D9491E
:10022000087000F061FF00F04EFE3246294620467D
:1002300000F0EEFE70BD2DE9F04104460D46164675
:100240001F46D148007830B90120CF49087000F02E
:100250004BFF00F038FE3B4632462946204600F070
:10026000BAFEBDE8F081012807D1C849096809B97B
:10027000012100E00021C54A1160704710B5C44853
:100280000078C2490968884205D000F038FEBF48AE
:100290000078BF490870BD48006800287ED028213A
:1002A000BC4803F06AFDBC48BCA10268B94803F031
:1002B00037FF1023B74A00212020FFF7BCFF282179
:1002C000B44803F05AFDB748B4A10268B14803F03E
:1002D00027FF1023AF4A02212020FFF7ACFF28217F
:1002E000AC4803F04AFDB048ACA10268A94803F04D
:1002F00017FF1023A74A04212020FFF79CFF282185
:10030000A44803F03AFDA948A4A10268A14803F05B
:1003100007FF10239F4A06212020FFF78CFF0022B1
:1003200011461046FFF773FF012200211020FFF74E
:100330006EFF022211460020FFF769FF032202210F
:100340001020FFF764FF042211460020FFF75FFF33
:10035000052204211020FFF75AFF06221146002033
:10036000FFF755FF072206211020FFF750FF282135
:10037000884803F002FD8E488EA10268854803F08C
:10038000CFFE1023834A00216820FFF754FF282165
:10039000804803F0F2FC894886A100E052E0026840
:1003A0007C4803F0BDFE10237A4A02216820FFF743
:1003B00042FF2821774803F0E0FC81487DA10268D4
:1003C000744803F0ADFE1023724A04216820FFF741
:1003D00032FF28216F4803F0D0FC7A4875A10268EB
:1003E0006C4803F09DFE10236A4A06216820FFF73F
:1003F00022FF082200214820FFF709FF09220021DF
:100400005820FFF704FF0A2202214820FFF7FFFED1
:100410000B2202215820FFF7FAFE0C22042148206B
:10042000FFF7F5FE0D2204215820FFF7F0FE0E2203
:1004300006214820FFF7EBFE0F2206215820FFF788
:10044000E6FE29E12821534803F097FC5E485FA1AE
:100450000268504803F064FE10234E4A0021202019
:10046000FFF7E9FE28214B4803F087FC594857A1C4
:100470000268484803F054FE1023464A0221202017
:10048000FFF7D9FE2821434803F077FC52484FA1DB
:100490000268404803F044FE10233E4A0421202015
:1004A000FFF7C9FE28213B4803F067FC4B4847A1F2
:1004B0000268384803F034FE1023364A0621202013
:1004C000FFF7B9FE002211461046FFF7A0FE0122F9
:1004D00000211020FFF79BFE022211460020FFF7AB
:1004E00096FE032202211020FFF791FE04221146FE
:1004F0000020FFF78CFE052204211020FFF787FE65
:10050000062211460020FFF782FE07220621102056
:10051000FFF77DFE28211F4803F02FFC304825A15E
:1005200002681C4803F0FCFD10231A4A00216820D1
:10053000FFF781FE282155E0344400087B226366E2
:10054000675F776966695F73736964223A227769C6
:100550006669227D000000007B226366675F776921
:1005600066695F706173737764223A223132333483
:1005700035363738227D000018010020000C01407C
:100580001C0100202001002021010020E8000020A3
:100590002201002084010020EC000020323A256472
:1005A00020000000F0000020F4000020F8000020EF
:1005B000FC0000203A25642000000000000100201B
:1005C000040100200801002050000020313A256479
:1005D0002000000054000020640000206C00002077
:1005E000D8000020F24803F0C8FBF248AFF23C010B
:1005F0000268EF4803F094FD1023ED4A02216820C1
:10060000FFF719FE2821EA4803F0B7FBEA48AFF2EA
:100610005C010268E64803F083FD1023E44A0421EC
:100620006820FFF708FE2821E14803F0A6FBE34815
:10063000AFF280010268DE4803F072FD1023DC4A4D
:1006400006216820FFF7F7FD082200214820FFF768
:10065000DEFD092200215820FFF7D9FD0A220221E0
:100660004820FFF7D4FD0B2202215820FFF7CFFDD1
:100670000C2204214820FFF7CAFD0D220421582036
:10068000FFF7C5FD0E2206214820FFF7C0FD0F220F
:1006900006215820FFF7BBFDC948006810B9C948BA
:1006A000006818B10120FFF774FD02E00020FFF799
:1006B00070FD10BD10B501F041FB01F0D7FA01F05B
:1006C000FEF848214FF47A7000F0BBFF00F00CFDFB
:1006D00000F0F9FB10BD10B5FFF787FDBA480078B0
:1006E00020B90120B849087000F094FDFFF7C6FD5D
:1006F00010BD2DE9F04106460D46284603F038FAB4
:100700000746B2A1304603F00AFA30B1284603F09A
:100710001EFA0446AF480460CEE0AFA1304603F0B5
:10072000FEF930B1284603F012FA0446AC480460E2
:10073000C2E0ACA1304603F0F2F930B1284603F034
:1007400006FA0446AA480460B6E0AAA1304603F0BF
:10075000E6F930B1284603F0FAF90446A7480460E8
:10076000AAE0A7A1304603F0DAF930B1284603F039
:10077000EEF90446A34804609EE0A3A1304603F0CE
:10078000CEF930B1284603F0E2F904468948046006
:1007900092E09EA1304603F0C2F930B1284603F042
:1007A000D6F904468448046086E099A1304603F0F7
:1007B000B6F930B1284603F0CAF904467F48046010
:1007C0007AE094A1304603F0AAF930B1284603F04C
:1007D000BEF904467A4804606EE08FA1304603F00B
:1007E0009EF930B1284603F0B2F904468C48046003
:1007F00062E08CA1304603F092F930B1284603F054
:10080000A6F904468948046056E089A1304603F001
:1008100086F930B1284603F09AF904468748046007
:100820004AE087A1304603F07AF930B1284603F058
:100830008EF90446844804603EE084A1304603F00B
:100840006EF930B1284603F082F90446804804600E
:1008500032E080A1304603F062F930B1284603F05F
:1008600076F904467C48046026E07CA1304603F01B
:1008700056F930B1284603F06AF904467848046016
:100880001AE078A1304603F04AF930B1284603F067
:100890005EF90446744804600EE074A1304603F02B
:1008A0003EF948B1284603F052F90446284603F0C1
:1008B0004EF9044643480460BDE8F08110B500F0ED
:1008C0004AFD10BD70B504460D4629462046FFF787
:1008D00039FCAFF2E111664803F09CF870BD70B5C9
:1008E00005460C46A1B2284600F0B6FF70BD70B5B3
:1008F00004460D4629462046FFF7F1FF70BD10B5AE
:10090000AFF23F015A4803F040F8AFF21D015948D9
:1009100003F03BF810BD10B54FF4806256495548BE
:1009200002F0F2FF4FF480625449514802F0ECFFAC
:100930004FF400725249534803F02BF901234FF44E
:10094000FA62AFF26D21504803F0BAF90123642234
:10095000AFF255014D4803F0B3F901230A22AFF27B
:10096000A3014B4803F0ACF9474803F0B7F94748F7
:1009700003F0B4F9464803F0B1F9AFF2157000F096
:100980009EFC10BDFFF7C7FFFFF794FE01E003F0E8
:10099000C8F9FCE710B501213E4802F0D0FE28B1AD
:1009A00001213C4802F0DCFE03F0D6F910BD000046
:1009B00084010020DC000020E0000020E400002092
:1009C0000C010020100100202301002077656E64D7
:1009D00075310000500000207368696475310000B3
:1009E000540000206775616E677169616E67310040
:1009F00064000020747572616E6731006C00002025
:100A000064310000D800002064320000643300002C
:100A1000643400006270310077656E6475320000E6
:100A2000EC0000207368696475320000F00000205B
:100A30006775616E677169616E673200F40000204E
:100A4000747572616E673200F80000206435000032
:100A5000FC00002064360000000100206437000024
:100A60000401002064380000080100206270320098
:100A7000E0070020B8030020E00300200808002061
:100A8000B8010020AC010020080C0020180C002048
:100A9000280C002000080040704700BFFEE700BFA0
:100AA000FEE700BFFEE700BFFEE7704770477047F4
:100AB000704708B540F22551214801F095FE88B1F4
:100AC0000020009040F225511D4801F0B7FE1C485F
:100AD00001F00AFEC0B2009001226946194803F0F5
:100AE00010F800BF08BD08B50020009040F2255165
:100AF000154801F079FE70B140F22551124801F01D
:100B00009DFE114801F0F0FDC0B20090012269463F
:100B10000E4802F0F6FF08BD10B540F225510C4812
:100B200001F062FE50B1002440F22551084801F066
:100B300085FE074801F0D8FDC4B200BF10BD00001B
:100B400000380140E007002000440040B8030020C6
:100B5000004800400CB50020019000906B480068F0
:100B600040F480306949086000BF6848006800F4BC
:100B7000003000900198401C0190009818B901982D
:100B8000B0F5A06FF1D16148006810F4003F02D0C9
:100B90000120009001E0002000900098012842D13F
:100BA0005B48006840F0100059490860084600683A
:100BB00020F0030008600846006840F0020008606A
:100BC00052484068514948600846406848600846B5
:100BD000406840F4806048600846406820F47C101B
:100BE00048600846406840F4E810486008460068DD
:100BF00040F08070086000BF4448006810F0007F3B
:100C0000FAD04248406820F0030040494860084656
:100C1000406840F00200486000BF3C48406800F077
:100C20000C000828F9D10CBD10B5FFF793FF10BDDB
:100C300010B53648006840F00100344908600846A5
:100C400040683449084031494860084600683249E4
:100C500008402E4908600846006820F4802008609B
:100C60000846406820F4FE0048604FF41F0088608A
:100C7000FFF7DAFF4FF000602849086010BD10B59B
:100C8000002100200022214B5B6803F00C0121B100
:100C9000042906D0082928D107E0214B214C2360E4
:100CA00027E01F4B1F4C236023E0184B5B6803F4C5
:100CB0007010164B5B6803F48032022303EB904004
:100CC00022B9194B4343174C23600DE00F4B5B686F
:100CD00013F4003F04D0144B4343124C236003E051
:100CE0000F4B43430F4C236003E00D4B0D4C23602F
:100CF00000BF00BF054B5B68C3F303130B4CE15C03
:100D0000084B1B68CB40074C236010BD001002400D
:100D1000002002400000FFF8FFFFF6FE08ED00E0B3
:100D200000127A002401002000093D002801002063
:100D300010B54FF40041FE4801F023F94FF4804113
:100D4000FB4801F01EF94FF48041F94801F01BF90E
:100D50004FF40041F64801F016F910BD10B54FF4FC
:100D60000041F34801F00DF94FF48041F04801F0E3
:100D70000AF94FF48041EE4801F003F910BD10B5B7
:100D80004FF40041EA4801F0FCF84FF40041E84814
:100D900001F0F9F810BD2DE9F04105462C464FF45D
:100DA0000041E34801F0EFF800261CE0274607F079
:100DB0008007802F04D1F901DD4801F0E2F804E05A
:100DC0004FF48041DA4801F0DEF86006040E4FF47B
:100DD0000041D74801F0D5F84FF40041D44801F064
:100DE000D2F8701CC6B2082EE0DBBDE8F08110B569
:100DF0000446FFF79DFF7820FFF7CDFFFFF7BFFF09
:100E00000020FFF7C8FFFFF7BAFF2046FFF7C3FF38
:100E1000FFF7B5FFFFF7A2FF10BD10B50446FFF7BF
:100E200087FF7820FFF7B7FFFFF7A9FF4020FFF704
:100E3000B2FFFFF7A4FF2046FFF7ADFFFFF79FFFCC
:100E4000FFF78CFF10BD70B504460D461DB1E0B232
:100E5000FFF7E3FF02E0E0B2FFF7C9FF70BD70B536
:100E60000646002418E004F1B0000021FFF7EBFF74
:100E700000210846FFF7E7FF00211020FFF7E3FFFE
:100E8000002505E001213046FFF7DDFF681CC5B2F3
:100E9000802DF7DB601CC4B2082CE4DB70BD70B59C
:100EA00004460D4605F1B0000021FFF7CCFF1021EC
:100EB00041EA14100021FFF7C6FF04F00F000021E3
:100EC000FFF7C1FF70BD10B500218D20FFF7BBFFFC
:100ED00000211420FFF7B7FF0021AF20FFF7B3FF79
:100EE00010BD10B500218D20FFF7ADFF00211020AF
:100EF000FFF7A9FF0021AE20FFF7A5FF10BD70B5D9
:100F0000002418E004F1B0000021FFF79CFF00214D
:100F10000846FFF798FF00211020FFF794FF0025F7
:100F200005E001210020FFF78EFF681CC5B2802D6F
:100F3000F7DB601CC4B2082CE4DB70BD2DE9F04780
:100F400007460E469046994600250024A8F1200049
:100F5000C5B27F2F02DD0027B01CC6B2B9F1100F59
:100F600024D131463846FFF79AFF002408E004EB0D
:100F70000511704A505C0121FFF765FF601CC4B287
:100F8000082CF4DB701CC1B23846FFF788FF002440
:100F900009E004EB05110831664A505C0121FFF7B6
:100FA00052FF601CC4B2082CF3DB12E03146384615
:100FB000FFF775FF00240AE005EB45015E4A02EBEE
:100FC0004101085D0121FFF73EFF601CC4B2062C01
:100FD000F2DBBDE8F0872DE9F04104460F461546E7
:100FE000984600260FE0AA5D434639462046FFF7A3
:100FF000A5FF04F10800C4B2782C02DD0024B81C5F
:10100000C7B2701CC6B2A85D0028ECD1BDE8F08163
:101010002DE9F04180460E461546002731464046F0
:10102000FFF73DFF00240AE0444A02EB8511085D0A
:101030000121FFF708FF781CC7B2601CC4B2102C56
:10104000F2DB701CC1B24046FFF729FF00240CE020
:101050006900491C394A02EB4111085D0121FFF783
:10106000F2FE781CC7B2601CC4B2102CF0DBBDE8E5
:10107000F0812DE9F05F06460F4690461C46DDF8EC
:1010800028A04FF0000BE11704EB5171C910B4EB2D
:10109000C10106D12046E11704EB5171C1F3C70528
:1010A00006E02046E11704EB5171C910491CCDB28E
:1010B0003D4615E029463046FFF7F1FEB1460BE00C
:1010C00059460BF1010B1AF801000121FFF7BBFE95
:1010D00009F1010000F0FF09C145F1DB681CC5B250
:1010E000A542E7DBBDE8F09F08B50121102001F023
:1010F00053F94FF44040ADF8000010208DF8030084
:1011000003208DF802006946094800F08FFE4FF475
:101110004041074800F035FF4FF4FA7000F0E2FD5F
:101120000021AE20FFF78FFE0021084608E00000F6
:1011300000100140AB460008834400089B4C0008A7
:10114000FFF781FE00211020FFF77DFE00214020E7
:10115000FFF779FE0021B020FFF775FE0021812006
:10116000FFF771FE0021FF20FFF76DFE0021A12097
:10117000FFF769FE0021A620FFF765FE0021A820E9
:10118000FFF761FE00213F20FFF75DFE0021C82030
:10119000FFF759FE0021D320FFF755FE0021084636
:1011A000FFF751FE0021D520FFF74DFE00218020E2
:1011B000FFF749FE0021D820FFF745FE002105205A
:1011C000FFF741FE0021D920FFF73DFE0021F1206D
:1011D000FFF739FE0021DA20FFF735FE002112204B
:1011E000FFF731FE0021DB20FFF72DFE002130202C
:1011F000FFF729FE00218D20FFF725FE0021142096
:10120000FFF721FE0021AF20FFF71DFEFFF777FE5D
:1012100008BD000008B50121042001F0BDF84820F8
:101220008DF803004FF48070ADF8000003208DF8B6
:1012300002006946C94800F0F9FD08BD38B504460A
:101240000121082001F0A8F8E4B128208DF803005E
:1012500003208DF802004FF47040ADF8000069469D
:10126000BF4800F0E3FD10208DF8030003208DF847
:1012700002004FF47070ADF800006946B84800F005
:10128000D5FD1BE048208DF8030003208DF80200F7
:101290004FF47070ADF800006946B14800F0C6FD2B
:1012A00010208DF8030003208DF802004FF47040E9
:1012B000ADF800006946AA4800F0B8FD38BD08B195
:1012C000A8490860704710B5A748007850B1A548F4
:1012D000006818B10120A349096888470020A24985
:1012E000087037E0A148007850B19E48006818B1F6
:1012F00002209C490968884700209C49087029E021
:101300009B48007850B19748006818B10320954970
:10131000096888470020964908701BE095480078C6
:1013200050B19048006818B104208E490968884778
:101330000020904908700DE08F48007850B189482E
:10134000006820B18C4800788649096888470020E9
:101350008949087010BD10B54FF480717F4800F0C6
:10136000F6FD48B98548007810B10120844908701D
:101370000120824908700AE08148007810B10120FC
:101380007949087000207E4908707C4908704FF444
:101390008051724800F0DBFD48B97A48007810B1FE
:1013A0000120794908700120764908700AE07648E2
:1013B000007810B101206D49087000207249087052
:1013C000704908700821664800F0C1FD48B96F48AF
:1013D000007810B101206E49087001206B49087037
:1013E0000AE06B48007810B10120614908700020C4
:1013F00067490870654908701021594800F0A7FD39
:1014000048B96448007810B1012063490870012090
:10141000604908700AE06048007810B10120554921
:10142000087000205C4908705A4908705B480178D0
:101430000078401C594A1070142904DDFFF743FF5F
:1014400000205649087010BD10B50020FFF7F6FEC9
:101450000020534908605349C1F8B8015249086057
:101460005049C1F8B0015148006818B901205049ED
:10147000087013E04F48006818B902204C49087002
:101480000CE04D48006818B903204949087005E090
:101490004A48006810B90420454908700120FFF748
:1014A000CDFE0120464908603E49C1F89C014549EE
:1014B00008603C49C1F8A40143480068012804D1F0
:1014C0003B4800783A4908701CE040480068012811
:1014D00005D137480078001D3549087012E03C48B6
:1014E0000068012805D1324800780830304908707A
:1014F00008E038480068012804D12D4800780C30F5
:101500002B490870344801780078401C324A10702A
:10151000142912DD2648007850B125480078164974
:101520000870FFF7D0FE224800780E490968884706
:1015300000201F4908702849087010BD10B52748C1
:101540000068401C25490860084600680A2804D342
:10155000FFF701FF00202149086010BD000801408D
:10156000000C01405001002038010020390100200A
:101570003A0100203B0100203C0100203E010020F8
:10158000420100203F0100204301002040010020D3
:1015900044010020410100204501002046010020B7
:1015A000BC81214200802142B48121421881214224
:1015B000470100201C8121422081214224812142B7
:1015C00098812142A08121423C81214238812142DF
:1015D0003481214230812142480100204C01002009
:1015E0007FB505460C460121022000F0E2FE681E90
:1015F00080B2ADF80800601E80B2ADF80400002093
:10160000ADF80A00ADF8060001A9264801F072FA0B
:1016100001221146234801F0E4FD1D208DF8000051
:1016200000208DF8010003208DF8020001208DF8C4
:101630000300684601F021F901211A4801F0B6FDC6
:101640007FBD7FB505460C460121042000F0B1FEA8
:10165000681E80B2ADF80800601E80B2ADF80400CC
:101660000020ADF80A00ADF8060001A90E4801F00F
:1016700041FA012211460C4801F0B3FD1E208DF8FD
:10168000000000208DF8010003208DF802000120E9
:101690008DF80300684601F0F0F80121024801F0DE
:1016A00085FD7FBD000400400008004008B5012111
:1016B000042000F071FE0121084600F06DFE0121BA
:1016C000880300F069FE4FF40070ADF800001820A8
:1016D0008DF8030003208DF802006946844800F06D
:1016E000A5FB4FF48060ADF8000004208DF80300E6
:1016F00069467F4800F09AFB0121042000F04CFE6F
:101700000121480400F055FE0121084600F044FE86
:101710000420ADF8000018208DF8030003208DF898
:1017200002006946724800F081FB0820ADF8000015
:1017300004208DF8030069466D4800F077FB08BD72
:101740001FB54FF4164000900020ADF80400ADF82E
:101750000600ADF80800ADF80C000C20ADF80A004A
:101760006946644800F0C3FE012240F225516148F9
:1017700000F055FF01215F4800F045FF40215D4822
:1017800001F029F84FF4164000900020ADF8040055
:10179000ADF80600ADF80800ADF80C000C20ADF86F
:1017A0000A006946544800F0A2FE012240F2255189
:1017B000514800F034FF01214F4800F024FF402140
:1017C0004D4801F008F81FBD08B525208DF8000030
:1017D00000208DF801008DF8020001208DF8030033
:1017E000684601F04AF826208DF8000000208DF8A8
:1017F000010001208DF802008DF80300684601F019
:101800003CF808BD10B5044621463B4800F068FF8F
:1018100000BF8021384800F0D1FF0028F9D010BD6A
:1018200010B504462146334800F05AFF00BF80211E
:10183000304800F0C3FF0028F9D010BD10B50446B1
:1018400021462E4800F04CFF00BF80212B4800F0BD
:10185000B5FF0028F9D010BD70B505460E4600242E
:1018600004E0285DFFF7DCFF601C84B2B442F8DBC3
:1018700070BD70B505460E46002404E0285DFFF7F4
:10188000C1FF601C84B2B442F8DB70BD70B5054680
:101890000E46002404E0285DFFF7D0FF601C84B2F0
:1018A000B442F8DB70BD70B505462C4603E02078E5
:1018B000FFF7A8FF641C20780028F8D170BD10B590
:1018C000FFF7F4FEFFF73CFFFFF77EFF10BD70B59A
:1018D00004460D46E1B2084800F002FF00BF802137
:1018E000054800F06BFF0028F9D0204670BD0000CD
:1018F000000801400038014000440040004800401A
:101900007FB505460C460121022000F052FD681EFD
:1019100080B2ADF80800601E80B2ADF8040000206F
:10192000ADF80A00ADF8060001A9C74801F0E2F8D9
:1019300001221146C44801F054FC1D208DF800001E
:1019400000208DF8010003208DF8020001208DF8A1
:101950000300684600F091FF7FBD10B50121BA4831
:1019600001F0EDFE18B10121B74801F0F9FE10BDFC
:101970001FB50121B54800F028FB0121092000F026
:101980000BFD1020ADF80C008DF80F0003208DF832
:101990000E0003A9AE4800F049FA0820ADF80C008B
:1019A00028208DF80F0003A9A94800F03FFA032171
:1019B000012000F04FFB0820019000208DF8080066
:1019C00008208DF8090001208DF80A0001A801F017
:1019D000D9FE09208DF8000002208DF801008DF855
:1019E000020001208DF80300684600F046FF1FBD8D
:1019F0002DE9F0410A2000F052F9802001F028FF83
:101A000040B30021904801F065FE01218E4801F0AD
:101A1000CDFB00BF80218E4800F099FA0028F9D153
:101A20000021894801F0C2FB874801F076FE00EBF7
:101A300000104400204602F021FA05460022854BA2
:101A400002F0ADF9074602F02AFA834908608020C7
:101A500001F00FFF202001F0FBFE40B300217A4887
:101A600001F038FE0121784801F0A0FB00BF2021E1
:101A7000774800F06CFA0028F9D10021724801F093
:101A800095FB714801F049FE00EB00104400204630
:101A900002F0F4F9054600226E4B02F080F9074689
:101AA00002F0FDF96D490860202001F0E2FEBDE87A
:101AB000F0812DE9F0410A2000F0F1F8082001F052
:101AC000C7FE40B30021604801F004FE01215E48DA
:101AD00001F06CFB00BF08215D4800F038FA0028D7
:101AE000F9D10021584801F061FB574801F015FE7B
:101AF00000EB00104400204602F0C0F90546002229
:101B0000544B02F04CF9074602F0C9F954490860F9
:101B1000082001F0AEFEBDE8F0812DE9F0410A2079
:101B200000F0BDF8022001F093FE40B300214648CA
:101B300001F0D0FD0121444801F038FB00BF022133
:101B4000434800F004FA0028F9D100213E4801F092
:101B50002DFB3D4801F0E1FD00EB00104400204664
:101B600002F08CF9054600223A4B02F018F90746BC
:101B700002F095F93B490860022001F07AFEBDE8C9
:101B8000F08110B54FF48071314800F0FAF914205B
:101B900000F085F84FF480712D4800F0F4F910BD85
:101BA00010B540212A4800F0ECF9142000F077F835
:101BB0004021274800F0E7F910BD10B51021244856
:101BC00000F0DFF9142000F06AF81021204800F03E
:101BD000DAF910BD10B504211D4800F0D2F9142027
:101BE00000F05DF804211A4800F0CDF910BD10B5E1
:101BF00048214EF66020FFF783FEFFF7B9FE10BDC7
:101C000010B5FFF7BEFF184800F049F81248006809
:101C100010BD10B5FFF7C4FF134800F040F80F489F
:101C2000006810BD10B5FFF7C8FF0F4800F037F887
:101C30000B48006810BD10B5FFF7CCFF0A4800F054
:101C40002EF80848006810BD000400400002300073
:101C5000000C014000409F4054010020580100202A
:101C60005C01002060010020400D030010B56FF002
:101C7000040000F04DFE2D4800682D49B0FBF1F046
:101C80002C4908700846007800EB4001C1EBC010F9
:101C90004FF6FF7101EAC0002749088010BD0146D8
:101CA000244A12784A434FF0E0235A6100229A6195
:101CB0001A46126942F001021A6100BF4FF0E02299
:101CC000106910F0010F02D010F4803FF6D04FF0F1
:101CD000E022126922F001024FF0E0231A61002293
:101CE0009A6170470146144A12884A434FF0E02334
:101CF0005A6100229A611A46126942F001021A6181
:101D000000BF4FF0E022106910F0010F02D010F474
:101D1000803FF6D04FF0E022126922F001024FF02E
:101D2000E0231A6100229A6170470000240100201C
:101D300000127A00640100206601002010B54FF403
:101D4000A06000F095FD10BD06488047064800479A
:101D5000FEE7FEE7FEE7FEE7FEE7FEE7FEE7FEE75B
:101D6000FEE7FEE7310C00083101000810B504461B
:101D7000CA48844208D10121042000F027FB002139
:101D8000042000F023FB46E0C548844208D101212D
:101D9000082000F01BFB0021082000F017FB3AE0B0
:101DA000C048844208D10121102000F00FFB00211F
:101DB000102000F00BFB2EE0BB48844208D101212B
:101DC000202000F003FB0021202000F0FFFA22E099
:101DD000B648844208D10121402000F0F7FA0021E2
:101DE000402000F0F3FA16E0B148844208D1012106
:101DF000802000F0EBFA0021802000F0E7FA0AE0F2
:101E0000AC48844207D10121801500F0DFFA00219F
:101E1000A01500F0DBFA10BD10B50121084600F056
:101E2000D5FA0021012000F0D1FA10BD2DE9F041D2
:101E3000024600250026002000230024002791F8F8
:101E400003C00CF00F0591F803C01CF0100F03D075
:101E500091F802C04CEA050591F800C0BCF1000FF2
:101E600031D0146800202BE04FF0010C0CFA00F385
:101E7000B1F800C00CEA03069E4220D183004FF067
:101E80000F0C0CFA03F7BC4305FA03FC4CEA0404FC
:101E900091F803C0BCF1280F06D14FF0010C0CFAE9
:101EA00000FCC2F814C00AE091F803C0BCF1480F6E
:101EB00005D14FF0010C0CFA00FCC2F810C0401C18
:101EC0000828D1D31460B1F800C0BCF1FF0F34DD95
:101ED000546800202EE000F1080C4FF0010808FAC9
:101EE0000CF3B1F800C00CEA03069E4221D1830036
:101EF0004FF00F0C0CFA03F7BC4305FA03FC4CEA55
:101F0000040491F803C0BCF1280F05D100F1080CBE
:101F100008FA0CF8C2F8148091F803C0BCF1480F1D
:101F200007D100F1080C4FF0010808FA0CF8C2F8CC
:101F30001080401C0828CED35460BDE8F0814FF6D5
:101F4000FF710180022181700421C1707047024637
:101F5000002093680B4201D0012000E00020704770
:101F60000146886880B2704702460020D3680B4261
:101F700001D0012000E0002070470146C86880B20F
:101F8000704701617047416170470AB1016100E02B
:101F900041617047C16070474FF480320A438261EB
:101FA0008161826182698269704702460020424BEA
:101FB00018684FF68073184040EA021008433E4B01
:101FC000186070473D49C8617047F0B50A46002364
:101FD00000240021002500F00046B6F1004F02D198
:101FE000354EF16901E0344E7168C0F3034583B2A8
:101FF00000F44016B6F5401F08D121F070612E4E56
:10200000766826F070662C4F7E6012E000F4801631
:10201000B6F5801F06D1032606FA05F4A14341F068
:10202000706106E0460D360103FA06F6B14341F051
:10203000706122B1460D360103FA06F6314300F015
:102040000046B6F1004F02D11B4EF16101E01A4E7D
:102050007160F0BD30B500228B071C0F0F2303FA0F
:1020600004F2154B08338C1053F824309343124C70
:1020700008348D1044F8253023468C1053F8243052
:102080008C07240F00FA04F423430B4C08348D1002
:1020900044F8253030BD0A49086070470008014007
:1020A000000C0140001001400014014000180140E4
:1020B000001C0140002001400000014000002042BF
:1020C000DC002042DD48006840F00100DB49086088
:1020D00008464068DA490840D84948600846006820
:1020E000D8490840D54908600846006820F4802097
:1020F00008600846406820F4FE0048604FF41F0066
:1021000088607047CD49096821F48031CB4A11605D
:102110001146096821F480211160B0F5803F03D099
:10212000B0F5802F0ED106E0C449096841F4803132
:10213000C24A116007E0C149096841F4A021BF4AC1
:10214000116000E000BF00BF704710B501460022DB
:10215000002300204A11012A02D1B84C236806E06E
:10216000022A02D1B54C236A01E0B44C636A01F043
:102170001F02012494401C4201D0012000E00020F5
:1021800010BD38B5002000900024002500BF31208C
:10219000FFF7DBFF05460098401C00900098B0F563
:1021A000A06F01D0002DF2D03120FFF7CEFF08B193
:1021B000012400E00024204638BD014600209F4A4B
:1021C000106820F0F80040EAC100106070479E4996
:1021D0000860704702460020984B586820F47C1035
:1021E00042EA01031843954B5860704796490866C8
:1021F000704701460020914A506820F003000843D0
:10220000506070478D48406800F00C0070470146F0
:1022100000208A4A506820F0F00008435060704760
:1022200001460020854A506820F4E0600843506071
:10223000704701460020814A506820F4605040EA0F
:10224000C1005060704729B17C4A527A02437B4BEF
:102250005A7204E0794A527A8243784B5A72704734
:102260007A490860704701460020744A506820F49B
:1022700040400843506070470021754A11706F4A12
:1022800082F82010012802D0042808D103E001219F
:102290006F4A117004E005216D4A117000E000BF23
:1022A00000BF70476B49086070476449096A014381
:1022B000624A11627047674944390860704730B517
:1022C00000210022002400235C4D6D6805F00C0104
:1022D00021B1042905D0082923D105E05E4D056010
:1022E00022E05D4D05601FE0544D6D6805F47012ED
:1022F000524D6D6805F48034022505EB92421CB9FD
:10230000564D554305600BE04C4D6D6815F4003F8C
:1023100003D0524D5543056002E04F4D55430560D3
:1023200002E04D4D056000BF00BF444D6D6805F0F3
:10233000F00109094A4D6B5C0568DD4045603F4D81
:102340006D6805F4E061090A454D6B5C4568DD4048
:1023500085603A4D6D6805F46051C90A404D6B5C6B
:102360004568DD40C560354D6D6805F44041890B19
:102370003C4D6B5CC568B5FBF3F5056130BD29B11B
:102380002E4A526902432D4B5A6104E02B4A52698E
:1023900082432A4B5A61704729B1284A9269024305
:1023A000264B9A6104E0254A92698243234B9A6145
:1023B000704729B1214AD2690243204BDA6104E017
:1023C0001E4AD26982431D4BDA61704729B11B4A0C
:1023D000D2680243194BDA6004E0184AD26882439B
:1023E000164BDA60704729B1144A12690243134B45
:1023F0001A6104E0114A12698243104B1A61704756
:1024000014494039086070470F49C86470470B4948
:10241000C87170470948406A40F0807007494862B7
:10242000704701460020054A92680A4201D0012007
:1024300000E0002070470149887270470010024098
:102440000000FFF8FFFFF6FE00004242D8004242C3
:10245000201002408004424200127A0000093D0030
:10246000680100207801002010B50446FB48844232
:1024700009D101218803FFF7A9FF00214FF4804013
:10248000FFF7A4FF32E0F648844209D10121480455
:10249000FFF7A9FF00214FF40030FFF7A4FF25E06C
:1024A000F048844209D101218804FFF79CFF0021F4
:1024B0004FF48020FFF797FF18E0EB48844209D1E2
:1024C0000121C804FFF78FFF00214FF40020FFF720
:1024D0008AFF0BE0E548844208D101210805FFF797
:1024E00082FF00214FF48010FFF77DFF10BD2DE922
:1024F000F04786B005460E460024A24600BFA1461E
:102500000027B08900B100BF2F462C8A4CF6FF701F
:102510000440F08804432C82AC894EF6F31004404A
:10252000B08831890843718908430443AC81AC8A7F
:102530004FF6FF400440B0890443AC8201A8FFF786
:10254000BEFEC648874202D1DDF810A001E0DDF8EA
:102550000CA0A88910F4004F08D00AEBCA0000EBC9
:102560000A1031684900B0FBF1F807E00AEBCA0035
:1025700000EB0A1031688900B0FBF1F86420B8FB69
:10258000F0F004012009642101FB1089A88910F4EE
:10259000004F08D0322000EBC900B0FBF1F000F092
:1025A0000700044308E0322000EB09106421B0FB6F
:1025B000F1F000F00F0004432C8106B0BDE8F08775
:1025C0004FF41651016000218180C18001810C21EE
:1025D000418100218181704710B502460020108A98
:1025E0004FF2FF0318400B884C8823438C88234309
:1025F000CC8823431843108210BD00210180418004
:102600008180C180704721B1828942F40052828169
:1026100004E082894DF6FF731A4082817047F0B55D
:1026200003460024002600250020A1F510676A3F1C
:1026300000D100BF1846C1F3421401F01F06012764
:1026400007FA06F5012C01D10C3004E0022C01D16F
:10265000103000E014301AB107682F43076002E021
:102660000768AF430760F0BD1AB1838A0B438382CA
:1026700002E0838A8B4383827047028A4FF6F073AD
:102680001A400282028A0A430282704782894FF20C
:10269000FF731A40828182890A438281704721B187
:1026A000828942F00202828104E082894FF6FD7342
:1026B0001A4082817047028A4FF6DF731A40028205
:1026C000028A0A430282704721B1028A42F48042A0
:1026D000028204E0028A4BF6FF731A4002827047BE
:1026E000C1F308028280704701468888C0F3080061
:1026F0007047818941F0010181817047028BD2B21C
:102700000283028B42EA012202837047028B02F4A9
:102710007F420283028B0A430283704721B1828A7F
:1027200042F02002828204E0828A4FF6DF731A4070
:102730008282704721B1828A42F01002828204E0D4
:10274000828A4FF6EF731A408282704721B1828AE3
:1027500042F00802828204E0828A4FF6F7731A4040
:102760008282704721B1828942F40042828103E073
:102770008289C2F30E028281704721B1828A42F4BB
:102780000062828204E0828A4FF2FF731A408282E2
:102790007047828A4FF6FB731A408282828A0A430C
:1027A0008282704721B1828A42F00202828204E072
:1027B000828A4FF6FD731A408282704702460020DB
:1027C000B1F5007F00D100BF13880B4201D001207A
:1027D00000E00020704701F40072B2F5007F00D1E4
:1027E00000BFCA430280704770B502460024002330
:1027F00000250020A1F510666A3E00D100BFC1F39C
:10280000421501F01F03012606FA03F3012D02D140
:102810009689334006E0022D02D1168A334001E04A
:10282000968A33400C12012606FA04F416883440C6
:1028300013B10CB1012000E0002070BD10B50022E2
:102840000023A1F510646A3C00D100BF0A120124E4
:102850009440A3B2DC43048010BD00000038014066
:102860000044004000480040004C00400050004040
:1028700031490143314A1160704770B5002100238E
:102880000F22C4780CB32D4C246804F4E064C4F522
:10289000E064210AC1F10403CA40447804FA03F158
:1028A0008478144021430901254C0678A155047809
:1028B00004F01F050124AC4005786D114FF0E026AF
:1028C00006EB8505C5F8004109E0047804F01F0512
:1028D0000124AC401B4D0678761145F8264070BDAA
:1028E000194A0A400243154B1B1F1A60704739B141
:1028F000124A121D12680243104B1B1D1A6006E09B
:102900000E4A121D126882430C4B1B1D1A60704741
:10291000042808D14FF0E021096941F004014FF08B
:10292000E022116107E04FF0E021096921F0040184
:102930004FF0E022116170470000FA050CED00E055
:1029400000E400E080E100E080FFFF1F10B50446D6
:10295000FE48844208D10121C014FFF737FD002151
:10296000E014FFF733FDC4E0B4F1804F08D101213A
:102970000846FFF738FD00210120FFF734FDB8E0DD
:10298000F348844208D101210220FFF72CFD0021E9
:102990000220FFF728FDACE0EE48844208D1012177
:1029A0000420FFF720FD00210420FFF71CFDA0E01C
:1029B000E948844208D101210820FFF714FD0021D5
:1029C0000820FFF710FD94E0E448844208D101217B
:1029D0001020FFF708FD00211020FFF704FD88E01C
:1029E000DF48844208D101212020FFF7FCFC0021B0
:1029F0002020FFF7F8FC7CE0DA48844208D101216E
:102A00004014FFF7E3FC00216014FFF7DFFC70E0E7
:102A1000D548844209D10121C804FFF7D7FC002121
:102A20004FF40020FFF7D2FC63E0D048844209D184
:102A300001210805FFF7CAFC00214FF48010FFF7C1
:102A4000C5FC56E0CA48844209D101214805FFF778
:102A5000BDFC00214FF40010FFF7B8FC49E0C54869
:102A6000844208D101214020FFF7BDFC0021402015
:102A7000FFF7B9FC3DE0C048844208D10121802025
:102A8000FFF7B1FC00218020FFF7ADFC31E0BB482F
:102A9000844208D101218015FFF7A5FC0021A01573
:102AA000FFF7A1FC25E0B648844209D101210804C2
:102AB000FFF78CFC00214FF48030FFF787FC18E013
:102AC000B048844209D101214804FFF77FFC00216E
:102AD0004FF40030FFF77AFC0BE0AB48844208D19A
:102AE00001218804FFF772FC00214FF48020FFF7DA
:102AF0006DFC10BD00220288944B98420ED0994B79
:102B000098420BD0B0F1804F08D0914B984205D03D
:102B1000904B984202D0904B984204D14FF68F735D
:102B20001A404B881A438D4B984207D08C4B9842E1
:102B300004D04FF6FF431A40CB881A4302808B889B
:102B400083850B880385814B98420BD0854B984237
:102B500008D08B4B984205D08A4B984202D08A4BC2
:102B6000984201D10B7A038601238382704770B5A6
:102B7000002400220023058C4FF6FE7635400584A4
:102B8000028C8388048B4FF68F752C40B51E2C4029
:102B90000D882C43751E2A400D892A434D882A43EF
:102BA0006A4DA8420BD06F4DA84208D0744DA84280
:102BB00005D0744DA84202D0734DA84213D14FF6F0
:102BC000F7752A404D892A434FF6FB752A408D88B8
:102BD0002A434FF6FF652B404FF6FF552B408D895A
:102BE0002B43CD892B4383800483CD888586028443
:102BF00070BD70B5002400220023058C4FF6EF76DF
:102C000035400584028C8388048B48F6FF752C4080
:102C10004FF6FF452C400D884FF6FF7606EA052556
:102C20002C434FF6DF752A400D8906EA05152A4325
:102C30004D8806EA05152A43444DA84202D0494D65
:102C4000A8421DD14FF67F752A404D894FF6FF7679
:102C500006EA05152A434FF6BF752A408D8806EA15
:102C600005152A434FF6FF352B404FF2FF752B40D9
:102C70008D8906EA85052B43CD8906EA85052B4318
:102C800083800483CD880587028470BD70B50024DD
:102C900000220023058C4FF6FF6635400584028C28
:102CA0008388848B4FF68F752C404FF6FC752C4033
:102CB0000D882C434FF6FF552A400D894FF6FF76BD
:102CC00006EA05252A434D8806EA05252A431F4DB5
:102CD000A84202D0234DA8421DD14FF2FF752A40D1
:102CE0004D894FF6FF7606EA05252A434FF6FF3554
:102CF0002A408D8806EA05252A434EF6FF752B40AB
:102D00004DF6FF752B408D8906EA05152B43CD89BD
:102D100006EA05152B4383808483CD88858702844A
:102D200070BD70B5002200230024058C4EF6FF769E
:102D300035400584038C8488828B48F6FF752A40D1
:102D40004FF6FF452A400D8820E00000002C01408E
:102D50000004004000080040000C0040001000404B
:102D60000014004000340140004C0140005001407C
:102D70000054014000180040001C004000200040AA
:102D80000040014000440140004801404FF6FF76FA
:102D900006EA05252A434DF6FF752B400D8906EA04
:102DA00005352B434D8806EA05352B43FA4DA842DD
:102DB00002D0FA4DA84208D14BF6FF752C408D8900
:102DC0004FF6FF7606EA85152C4384808283CD88F2
:102DD000A0F84050038470BD828B4FF2FF331A403D
:102DE0008283828B4FF6FF7303EA01231A438283A7
:102DF0007047F0B50C461546002200210026078CCE
:102E00004EF6FF7C07EA0C070784828B018C4FF695
:102E1000FF7707EA043640F6FF473A404FF6FF7760
:102E200007EA05273A434FF6FF7707EA03373A43A5
:102E3000D94FB8420ED0D94FB8420BD0B0F1804F25
:102E400008D0D74FB84205D0D64FB84202D0D64F9F
:102E5000B84206D14DF6FF77394046F480573943E2
:102E600005E047F6FF57394044F4805739438283E1
:102E70000184F0BD828B4FF6F3731A408283828BFC
:102E80000A4382837047F0B50C46154600220021A4
:102E90000026078C4FF6FF6C07EA0C070784828B2D
:102EA000018C4FF6FF7707EA04264FF60C773A407D
:102EB0004FF6FF7707EA03172F433A43B64FB8425E
:102EC0000ED0B64FB8420BD0B0F1804F08D0B44FFF
:102ED000B84205D0B34FB84202D0B34FB84206D182
:102EE0004FF6FF57394046F48077394305E04FF2FB
:102EF000FF57394044F48077394382830184F0BD21
:102F0000028B4FF2FF331A400283028B4FF6FF739E
:102F100003EA01231A4302837047F0B50C461546B5
:102F2000002200210026078C4FF6EF7C07EA0C07F1
:102F30000784028B018C4FF6FF7707EA041640F6F0
:102F4000FF473A404FF6FF7707EA03373A434FF619
:102F5000FF7707EA05273A438F4FB8420ED08F4FCD
:102F6000B8420BD0B0F1804F08D08D4FB84205D099
:102F70008C4FB84202D08C4FB84206D14FF6DF7763
:102F8000394046F01007394305E04FF65F77394086
:102F900044F01007394302830184F0BD028B4FF6E1
:102FA000F3731A400283028B0A4302837047F0B521
:102FB0000C46154600220021068C4FF6FE773E4057
:102FC0000684028B018C4FF60C7632407E1C06EA9A
:102FD00003162E433243704EB0420ED06F4EB042B5
:102FE0000BD0B0F1804F08D06D4EB04205D06D4E81
:102FF000B04202D06C4EB04206D14FF6FD76314061
:1030000044F00106314305E04FF6F576314044F0D7
:103010000106314302830184F0BD70B505460C46BC
:103020005D4885420ED05D4885420BD0B5F1804F9A
:1030300008D05B48854205D05A48854202D05A489C
:10304000854200D100E000BF208850B92389A288C2
:1030500061882846FFF7ABFFE1882846FFF79EFF0F
:1030600025E0208804280AD12389A288618828467F
:10307000FFF753FFE1882846FFF742FF17E020885B
:1030800008280AD12389A28861882846FFF7FBFE19
:10309000E1882846FFF7EEFE09E02389A2886188CF
:1030A0002846FFF7A6FEE1882846FFF795FE70BD8B
:1030B0002DE9F04105460C4600260127608808B935
:1030C000022600E00026A088012801D1022700E0A6
:1030D00001272088A0B92389A28861882846FFF7A4
:1030E00066FFE1882846FFF759FF23893A463146B3
:1030F0002846FFF712FFE1882846FFF701FF13E09B
:103100002389A28861882846FFF707FFE1882846BF
:10311000FFF7F6FE23893A4631462846FFF747FF78
:10312000E1882846FFF73AFFBDE8F0810A884B881E
:103130001A438B881A43CB881A430B891A434B894D
:103140001A438B891A43A0F8442070474FF6FF7149
:10315000818000210180C18041800172704700217F
:10316000018041808180C180018141818181C18153
:103170007047002101804180012181800021C180B0
:10318000018170470021018041808180C1800181DF
:103190004181818170470000002C014000340140D2
:1031A0000004004000080040000C004021B10288EB
:1031B00042F00102028004E002884FF6FE731A40DA
:1031C0000280704731B1B0F8442042F40042A0F8C8
:1031D000442005E0B0F84420C2F30E02A0F84420D9
:1031E00070471AB183890B43838102E083898B4343
:1031F000838170478182704741EA0203A0F848301A
:1032000070471AB183890B43838102E083898B4322
:103210008381704701894FF6F87211400181704730
:103220000A46002101894FF68F731940114301812D
:10323000704730B504460D4629462046FFF7F0FF9B
:10324000208940F00700208130BD2DE9F04104467F
:103250000D4616461F46602D06D13B4601223146DB
:103260002046FFF75AFE05E03B4601223146204644
:10327000FFF79DFE29462046FFF7D2FF208940F048
:1032800007002081BDE8F08130B50C46002101899E
:10329000C9B24FF6FF7505EA0325154325432943B7
:1032A000018130BD2DE9F04105460E46174698468E
:1032B000002443463A4631462846FFF7E5FF2C896D
:1032C0004FF6F870044044F007044FF68F70044046
:1032D00044F070042C81BDE8F081F0B504460D4641
:1032E00016461F463B46324629462046FFF7CCFF8E
:1032F000208940F480402081F0BD018582827047A2
:103300000A46002101884FF68F731940114301804E
:103310007047F0B50C4615461E46002100220023DA
:103320000189028B038C4FF6F877394021434FF621
:10333000FC473A4040F201173A434FF6DD773B40F5
:103340004FF6FF7707EA06172F433B4301810283BD
:103350000384F0BD0A460021018B4FF68F7319409C
:103360001143018370470A460021018B48F6FF7321
:1033700019404FF6FF7303EA022319430183704794
:103380000A460021818B4FF68F73194011438183C8
:1033900070470A460021818B48F6FF7319404FF6AB
:1033A000FF7303EA022319438183704721B1028826
:1033B00042F08002028004E002884FF67F731A40D8
:1033C0000280704721B1828842F00402828004E0CA
:1033D00082884FF6FB731A408280704721B1828841
:1033E00042F00802828004E082884FF6F7731A40A8
:1033F0008280704721B1828842F00102828004E01D
:1034000082884FF6FE731A40828070470A46002178
:10341000018B4FF6F77319401143018370470A4639
:103420000021018B4FF2FF7319404FF6FF7303EA3F
:1034300002231943018370470A460021818B4FF60E
:10344000F77319401143818370470A460021818B2D
:103450004FF2FF7319404FF6FF7303EA022319433B
:10346000818370470A460021018B4FF6FB73194098
:103470001143018370470A460021018B4FF6FF3349
:1034800019404FF6FF7303EA022319430183704783
:103490000A460021818B4FF6FB731940114381834B
:1034A00070470A460021818B4FF6FF3319404FF6D3
:1034B000FF7303EA02231943818370470A46002100
:1034C000018B4FF67F7319401143018370470A4601
:1034D0000021018BC1F30E014FF6FF7303EA0223B3
:1034E0001943018370470A460021818B4FF67F7391
:1034F00019401143818370470A460021818BC1F333
:103500000E014FF6FF7303EA0223194381837047CC
:103510000A460021018C4FF6FD73194011430184C6
:1035200070470A460021018C4FF6F773194011438A
:10353000018470470A460021018C4FF6DF73194061
:103540004FF6FF7303EA02131943018470470A46DA
:103550000021018C4FF67F7319404FF6FF7303EA89
:1035600002131943018470470A460021018C4FF66B
:10357000FF5319404FF6FF7303EA022319430184F6
:1035800070470A460021018C4FF2FF7319404FF635
:10359000FF7303EA02231943018470470A4600219E
:1035A000018C4DF6FF7319404FF6FF7303EA0233A7
:1035B00019430184704730B5002301248C40A3B225
:1035C000048C9C430484048C02FA01F5ADB22C43B4
:1035D000048430BD30B5002304248C40A3B2048C95
:1035E0009C430484048C02FA01F5ADB22C4304849C
:1035F00030BD70B503460020002418461830012560
:103600008D40ACB21D8CA5431D8409B1082909D198
:1036100000EB6100056825F070050560056815433D
:1036200005600EE00D1FC5F34E052844056825F41E
:10363000E045056005684FF6FF7606EA0226354349
:10364000056070BD21B1028842F00202028004E0F0
:1036500002884FF6FD731A400280704721B102883C
:1036600042F00402028004E002884FF6FB731A4025
:103670000280704721B1828842F08002828004E09B
:1036800082884FF67F731A408280704702884FF617
:10369000F7731A40028002880A43028070478288CA
:1036A0004FF68F731A40828082880A438280704767
:1036B00002894FF6F8731A40028102890A43028197
:1036C000704702894FF67F731A40028102890A43CC
:1036D0000281704781847047818570478186704779
:1036E0000187704781877047A0F8401070470288B3
:1036F0004FF6FF431A40028002880A430280704757
:103700000146888E70470146088F70470146888FB2
:1037100070470146B1F8400070470146888C7047F9
:103720000146088D704702460020138A0B4201D0E3
:10373000012000E000207047CA430282704730B584
:103740000246002000230024158A05EA010395891A
:1037500005EA010413B10CB1012000E0002030BDE6
:10376000CA43028270470000002044490860091DD6
:103770000860091D0860091D086041483F4914316F
:103780000860704700213D498279002A3AD00A46F4
:10379000126803689A430B461A600A1D1268036890
:1037A0009A430B1D1A60027911440A6803681A4390
:1037B0000A60324A0832126803689A432F4B083372
:1037C0001A601A1D126803689A432C4B0C331A6056
:1037D0004279102A0ED11A1F126803681A43274B28
:1037E00008331A601A1D126803681A43234B0C33FE
:1037F0001A600DE02149427911440A6803681A43AE
:103800000A6005E0027911440A6803689A430A6075
:1038100070470021016001710C214171002181710B
:1038200070471649103109680143144A103211607B
:10383000704701460020114A143212680A4201D032
:10384000012000E0002070470C49143108607047E7
:10385000014600200022094B1B6803EA0102074BC6
:1038600014331B680B4202D00AB1012000E0002093
:10387000704702491431086070470000000401409D
:10388000FFFF0F00034613B109B1022A02DA4FF01D
:10389000FF3070479960596019600020D8601A6144
:1038A00000BFF6E70246D0681369984202DB4FF08A
:1038B000FF307047D068401CD0609068431C936014
:1038C00001701369106818449368984201D8106811
:1038D00090600020EDE70246D068002802DC4FF03F
:1038E000FF307047D068401ED0605068431C536062
:1038F00003780B701369106818445368984201D814
:10390000106850600020ECE7F0B504460D461646FE
:103910000320B6FBF0F7F21BE9192046FFF7B2FFD0
:10392000A561E7610020206284F82400F0BD2DE944
:10393000F0410446A569A069471C1FE028782C289F
:1039400002D028787D2818D13E4610E030783A28F9
:103950000DD1761C3878222800D17F1C307822289F
:1039600000D1761C314638466269904703E0304604
:10397000761CA842EAD300BF6F1C6D1C216AA069A7
:103980000844A842DAD8BDE8F08138B504460D46AF
:1039900039E09DF800007B280CD1012084F8240038
:1039A000002020629DF80010226A501C2062A0694D
:1039B000815428E09DF800007D2814D194F824005B
:1039C00070B19DF80010226A501C2062A0698154D9
:1039D000216AA069A8470020206284F8240011E031
:1039E000002020620EE094F8240058B1D4E90701C9
:1039F000801E814206D29DF80010226A501C20626F
:103A0000A069815400BF69462046FFF764FF002883
:103A1000BFD038BD2DE9F04104468846A569A069AC
:103A2000471CC4F814801FE028782C2802D028787E
:103A30007D2818D13E4610E030783A280DD1761C0A
:103A40003878222800D17F1C3078222800D1761CBB
:103A5000314638466269904703E03046761CA842FA
:103A6000EAD300BF6F1C6D1C216AA0690844A842FC
:103A7000DAD8BDE8F08138B504460D46656139E015
:103A80009DF800007B280CD1012084F82400002040
:103A900020629DF80010226A501C2062A0698154A7
:103AA00028E09DF800007D2814D194F8240070B11E
:103AB0009DF80010226A501C2062A06981542046A3
:103AC000FFF735FF0020206284F8240011E0002079
:103AD00020620EE094F8240058B1D4E90701801E5A
:103AE000814206D29DF80010226A501C2062A06913
:103AF000815400BF69462046FFF7EDFE0028BFD085
:103B000038BDF0B507460D461646002404E0295D91
:103B10003846FFF7C7FE641CB442F8D3F0BD70B559
:103B200004460A4625460021002300E05B1CD05CC9
:103B30000028FBD1002106E0685C565CB04201D051
:103B4000002070BD491C9942F6DB0120F9E70146CF
:103B5000002006E000EB800250000A78303A104462
:103B6000491C0A78302A02DB0A78392AF2DD7047CC
:103B70000146002000E0401C0A5C7D2A08D00A5C57
:103B80002C2A05D00A5C222A02D00A5C3A2AF2D1F9
:103B90007047016042607047002181607B210268AC
:103BA00011708168491C81607047D0E901329A42E6
:103BB00004D283685A1C82600268D15470472DE990
:103BC000F04380460D461646002400272221404639
:103BD000FFF7EBFF04E029784046FFF7E6FF6D1C96
:103BE00028780028F7D122214046FFF7DEFF3A214E
:103BF0004046FFF7DAFF3746012405E004EB840076
:103C000044000A2097FBF0F70A2FF7DC0FE096FB41
:103C1000F4F0303000F0FF0949464046FFF7C5FF99
:103C200096FBF4F004FB10660A2094FBF0F4002CE1
:103C3000EDDC2C214046FFF7B8FFBDE8F08370B5FE
:103C400006460C46154622213046FFF7AEFF04E03B
:103C500021783046FFF7A9FF641C20780028F7D1AF
:103C600022213046FFF7A1FF3A213046FFF79DFFA2
:103C700022213046FFF799FF04E029783046FFF70C
:103C800094FF6D1C28780028F7D122213046FFF7D9
:103C90008CFF2C213046FFF788FF70BD70B50446BD
:103CA0000D46A068401E2168085C2C2807D17D21A4
:103CB000A068401E22681154A1682068A84770BD02
:103CC00010B58160274C2468144404600024C4604B
:103CD0000BB1426001E00024446010BD014622485F
:103CE000026805E08A4202D14FF0FF307047D26887
:103CF000002AF7D11C480068C8601B4801600020FA
:103D0000F4E70246184808E00168914202D1CB6806
:103D1000036001E001F10C0000BF01680029F3D14C
:103D2000704710B51048046813E00E492068096810
:103D3000401A00280CDC606818B92046FFF7E1FF44
:103D400004E008496068096808442060A06880476A
:103D5000E468002CE9D110BD02480068401C01490C
:103D600008607047800100207C010020D2B201E091
:103D700000F8012B491EFBD270470022F6E710B570
:103D800013460A4604461946FFF7F0FF204610BDC9
:103D9000421C10F8011B0029FBD1801A70472DE945
:103DA000F04D81EA030404F0004B21F00045144675
:103DB0004FF0000A23F0004150EA050220D054EAF7
:103DC00001021DD0C5F30A570246C5F31303C1F320
:103DD0001300C1F30A5640F4801543F48013A7EB97
:103DE0000608101BD64608F2FD3873EB050002D317
:103DF00008F1010801E092185B41B8F1000F03DA05
:103E000000200146BDE8F08D00204FF480110646E9
:103E100084460EE0171B73EB050705D3121B63EBFB
:103E2000050306434CEA010C49084FEA300092189A
:103E30005B4150EA0107EDD152EA030012D082EA59
:103E4000040083EA0501084303D100224FF0004338
:103E500008E0101BAB4102D20122002302E06FF008
:103E6000010253101AEB06004CEB085110EB0A004C
:103E700041EB0B01BDE8F04D00F0B3B80EB5C10F3A
:103E800080EAE0700844CA07002140F233438DE81D
:103E90000E000A460B4600F0B1F803B000BD01F079
:103EA000004330B421F0004150EA010206D00A0D6F
:103EB000A2F56072C1F31301002A02DC30BC0020BD
:103EC0007047440F44EAC104C100E01830BC00EB65
:103ED000C25000F050B82DE9F05F05460020924630
:103EE0009B4688460646814640241BE028464146BC
:103EF0004746224600F02FF853465A46C01A9141D1
:103F000010D311461846224600F016F82D1A67EB1A
:103F100001084F4622460120002100F00DF817EB62
:103F200000094E41201EA4F10104DFDC4846314661
:103F30002A464346BDE8F09F202A04DB203A00FAD7
:103F400002F1002070479140C2F1200320FA03F3F0
:103F5000194390407047202A04DB203A21FA02F0EE
:103F60000021704721FA02F3D040C2F120029140B3
:103F70000843194670470029A8BF7047401C4900F4
:103F800008BF20F00100704710B4B0FA80FC00FABE
:103F90000CF050EA010404BF10BC704749B1CCF1E9
:103FA000200421FA04F411FA0CF118BF0121214375
:103FB0000843A3EB0C01CB1D0106000A002BBEBF7A
:103FC000002010BC704700EBC35010440029A4BF70
:103FD00010BC7047401C490008BF20F0010010BC15
:103FE000704710B5002B08DA401C41F1000192180F
:103FF0005B411A4301D120F0010010BD2DE9F04DC5
:1040000092469B4611B1B1FA81F202E0B0FA80F219
:1040100020329046FFF790FF04460F4640EA0A0020
:1040200041EA0B0153465A46084303D1204639461C
:10403000BDE8F08D114653EA010015D0C8F14002E9
:104040005046FFF788FF05460E4650465946424601
:10405000FFF772FF084301D0012000E00020054374
:1040600046EAE0762C4337430A984FEA4453A0EBE4
:1040700008004FEAD4240A304FF0000244EA4754C3
:104080004FEAD72502D500200146D1E701051019D6
:104090006941DDE9084500196941BDE8F04DA0E737
:1040A000064C074D06E0E06840F0010394E8070085
:1040B00098471034AC42F6D3FCF73EF89C50000809
:1040C000BC50000870B501EB020410F8015B15F05C
:1040D000070301D110F8013B2A1106D110F8012B7A
:1040E00003E010F8016B01F8016B5B1EF9D12B079F
:1040F00005D40023521E0FD401F8013BFAE710F853
:10410000013B02F10202A1EB030303E013F8015BA0
:1041100001F8015B521EF9D5A142D6D3002070BD33
:104120000FB4084B10B504A902AA039800F01CF8BC
:10413000044602A9002000F077F9204610BC5DF883
:1041400014FB00002944000802E008C8121F08C13F
:10415000002AFAD170477047002001E001C1121F08
:10416000002AFBD1704700002DE9FF4F8DB09B4620
:104170000F460446002638E1252801D00F9959E062
:104180000025641C9D49A84601222378203B02FAA1
:1041900003F0084202D00543641CF6E720782E287D
:1041A00017D114F8010F45F004052A280ED06FF03E
:1041B0002F022078A0F1300109290AD808EB8801E4
:1041C00002EB410100EB0108641CF2E757F8048B95
:1041D000641C20786C280DD004DC4C2812D06A288E
:1041E00011D104E074280DD07A280CD10AE045F4EE
:1041F000001507E0617845F48015814202D1641C06
:1042000005F58015641C2278692A46D008DC002A4E
:1042100070D0582A69D0632A11D0642A08D13CE0B2
:10422000702A69D0732A14D0752A5CD0782A5CD0A1
:104230000F9910465A46904706F10106D4E017F848
:10424000040B8DF8000000208DF80100E9460120E4
:1042500003E057F8049B4FF0FF3069074FF000056B
:1042600001D40AE06D1C45450DDA8542FADB19F8E8
:1042700005100029F6D106E06D1C8542FCDB19F81B
:1042800005100029F8D12E4404E019F8010B5A4614
:104290000F9990476D1EF8D2A6E00A200021CDE9C3
:1042A0000801C5F3025002280BD001CFC117002925
:1042B0000EDA4FF0000CD0EB0C006CEB01012D235B
:1042C00009E007F1070727F00707F7E80201EEE723
:1042D0002B0504D52B238DF82830012330E0EB0784
:1042E0002ED02023F7E70A2000E010200021CDE99E
:1042F000080109E07DE0FFE71020002145F00405FA
:10430000CDE908014FF00808C5F3025002281BD080
:1043100001CF00214FF0000A2B0712D5702A19D0C7
:10432000DDE908C38CF0100C5CEA030C09D150EAFB
:10433000010306D030238DF828308DF82920022380
:104340009A46582A10D00AE0FF1D27F00707F7E821
:104350000201DFE740228DF828204FF0010A28A251
:104360000DF120090B9209E02AA2F9E7DDE9082303
:10437000FFF7B1FD0B9B9B5C09F8013D50EA010280
:10438000F4D1ADEB090000F120000890680701D4DA
:104390004FF001080899884502DDA8EB010000E014
:1043A00000208046002506E00AA85A46405D0F9985
:1043B0009047761C6D1C5545F6DB04E030205A46CC
:1043C0000F999047761CB8F10001A8F10108F5DCBF
:1043D00005E019F8010B5A460F999047761C089989
:1043E000481E08900029F4DC641C207800287FF423
:1043F000C3AE11B03046BDE8F08F000009280100BF
:10440000303132333435363738396162636465664A
:10441000000000003031323334353637383941420C
:1044200043444546000000000A68531C0B601070AE
:10443000704700007B226366675F73657276657202
:104440005F686F7374223A227777772E7869616F8D
:10445000746F6E6772656E2E746F702F646573690A
:10446000676E2F7570646174652F6D312F7069648C
:104470002F383633322F7569642F5A436669635378
:10448000227D000000000000000000002F0000005E
:10449000000700070000147F147F1400242A7F2ADD
:1044A00012006264081323003649552250000005AB
:1044B00003000000001C224100000041221C0000FB
:1044C00014083E08140008083E0808000000A06018
:1044D00000000808080808000060600000002010C4
:1044E000080402003E5149453E0000427F40000062
:1044F0004261514946002141454B31001814127F59
:1045000010002745454539003C4A494930000171B2
:1045100009050300364949493600064949291E0064
:104520000036360000000056360000000814224114
:104530000000141414141400004122140800020195
:1045400051090600324959513E007C1211127C007B
:104550007F49494936003E41414122007F41412285
:104560001C007F49494941007F09090901003E417A
:1045700049497A007F0808087F0000417F41000018
:104580002040413F01007F08142241007F4040400D
:1045900040007F020C027F007F0408107F003E4134
:1045A00041413E007F09090906003E4151215E005C
:1045B0007F091929460046494949310001017F0117
:1045C00001003F4040403F001F2040201F003F406F
:1045D00038403F00631408146300070870080700A0
:1045E000615149454300007F41410000552A552A49
:1045F00055000041417F00000402010204004040D8
:10460000404040000001020400002054545478004F
:104610007F484444380038444444200038444448E7
:104620007F00385454541800087E0901020018A471
:10463000A4A47C007F080404780000447D400000AE
:104640004080847D00007F102844000000417F40AE
:1046500000007C04180478007C08040478003844C6
:1046600044443800FC242424180018242418FC0096
:104670007C0804040800485454542000043F44407B
:1046800020003C4040207C001C2040201C003C407E
:1046900030403C004428102844001CA0A0A07C000E
:1046A0004464544C44141414141414000000000006
:1046B0000000000000000000000000000000F80002
:1046C000000000000000333000000000100C061055
:1046D0000C0600000000000000000040C07840C050
:1046E000784000043F04043F040400007088FC0884
:1046F000300000001820FF211E0000F008F000E04C
:1047000018000000211C031E211E0000F008887004
:104710000000001E2123241927211010160E00006E
:104720000000000000000000000000000000E01891
:10473000040200000000071820400000020418E0F6
:104740000000000040201807000000404080F0807A
:104750004040000202010F01020200000000F000D0
:104760000000000101011F01010100000000000024
:1047700000000080B0700000000000000000000099
:104780000000000001010101010101000000000022
:104790000000000030300000000000000000008039
:1047A000601804006018060100000000E01008080E
:1047B00010E000000F102020100F00001010F80073
:1047C0000000000020203F202000000070080808A2
:1047D00088700000302824222130000030088888AA
:1047E0004830000018202020110E000000C02010CA
:1047F000F8000000070424243F240000F8088888FB
:104800000808000019212020110E0000E0108888FF
:10481000180000000F112020110E0000380808C8F1
:104820003808000000003F00000000007088080801
:10483000887000001C222121221C0000E0100808C2
:1048400010E0000000312222110F00000000C0C063
:104850000000000000003030000000000000800078
:104860000000000000806000000000000080402088
:1048700010080000010204081020004040404040A1
:104880004040000404040404040400000810204014
:104890008000000020100804020100007048080891
:1048A00008F0000000003036010000C030C828E8E1
:1048B00010E0000718272423140B000000C038E084
:1048C000000000203C23020227382008F88888884E
:1048D000700000203F202020110E00C03008080882
:1048E000083800071820202010080008F8080808D9
:1048F00010E000203F202020100F0008F88888E8F2
:10490000081000203F20202320180008F88888E89D
:10491000081000203F200003000000C030080808F5
:1049200038000007182020221E020008F8080000A6
:1049300008F808203F210101213F20000808F8085D
:104940000800000020203F2020000000000808F898
:10495000080800C08080807F00000008F888C02818
:10496000180800203F20012638200008F808000021
:10497000000000203F20202020300008F8F800F838
:10498000F80800203F003F003F200008F830C0003A
:1049900008F808203F200007183F00E0100808082A
:1049A00010E0000F10202020100F0008F808080861
:1049B00008F000203F210101010000E01008080874
:1049C00010E0000F18242438504F0008F888888819
:1049D000887000203F2000030C30200070880808F9
:1049E0000838000038202121221C00180808F80887
:1049F0000818000000203F2000000008F808000010
:104A000008F808001F202020201F000878880000D8
:104A1000C83808000007380E010000F80800F80048
:104A200008F800033C0700073C0300081868808072
:104A300068180820302C03032C30200838C800C820
:104A40003808000000203F2000000010080808C8B7
:104A50003808002038262120201800000000FE021F
:104A60000202000000007F40404000000C30C00007
:104A7000000000000000010638C00000020202FE33
:104A8000000000004040407F0000000000040202DF
:104A90000204000000000000000000000000000010
:104AA00000000080808080808080800002020400FE
:104AB0000000000000000000000000000080808076
:104AC0008000000019242222223F2008F800808064
:104AD000000000003F112020110E00000000808027
:104AE000800000000E1120202011000000008080B6
:104AF00088F800000E112020103F200000808080E8
:104B0000800000001F222222221300008080F088F3
:104B10008888180020203F2020000000008080802E
:104B2000808000006B94949493600008F80080806B
:104B3000800000203F210000203F20008098980046
:104B40000000000020203F2020000000000080988E
:104B500098000000C08080807F000008F80000807E
:104B6000808000203F24022D302000000808F8003B
:104B70000000000020203F202000008080808080F6
:104B8000808000203F20003F20003F808000808008
:104B9000800000203F210000203F20000080808016
:104BA000800000001F202020201F008080008080C7
:104BB00000000080FFA12020110E00000000808076
:104BC000808000000E112020A0FF80808080008067
:104BD00080800020203F2120000100000080808094
:104BE0008080000033242424241900008080E08089
:104BF0008000000000001F202000008080000000D6
:104C0000808000001F202020103F20808080000036
:104C100080808000010E3008060100808000800046
:104C20008080800F300C030C300F000080800080EB
:104C30008080000020312E0E312000808080000016
:104C400080808080818E70180601000080808080C6
:104C50008080000021302C222130000000000080E4
:104C60007C020200000000003F404000000000FF06
:104C700000000000000000FF0000000002027C8035
:104C80000000000040403F0000000000060101025B
:104C900002040400000000000000001060028C000C
:104CA00000FE9292929292FE00000000000000002E
:104CB000000000000000000000000004047E01402D
:104CC0007E42427E427E42427E4000000000000062
:104CD00000000000000000000000000000FC242490
:104CE00024FC252624FC24242404000000000000C9
:104CF000000000000000000000000040308F8084B1
:104D00004C55252525554C80808000000000000072
:104D100000000000000000000000001060028C0095
:104D2000FE929292929292FE00000000000000001B
:104D3000000000000000000000000004047E0144A8
:104D400048507F40407F5048444000000000000031
:104D500000000000000000000000000000FC24240F
:104D600024FC252624FC2424240400000000000048
:104D7000000000000000000000000040308F808430
:104D80004C55252525554C808080000000000000F2
:104D900000000000000000000000004040424458B5
:104DA000C0407F40C0504846404000000000000026
:104DB000000000000000000000000080804020187B
:104DC000070000003F404040407800000000000025
:104DD000000000000000000000000002E222223E6D
:104DE00000809E9292F292929E800000000000004D
:104DF0000000000000000000000000004382423E6E
:104E000040474444447F444454E70000000000000D
:104E100000000000000000000000000000404040D2
:104E20004040FF40404040400000000000000000C3
:104E30000000000000000000000000404040404032
:104E400040407F40404040404040000000000000A3
:104E500000000000000000000000001010FF100023
:104E600082BAEABA83BAEABA8200000000000000FF
:104E7000000000000000000000000008180F0448B7
:104E80004A2AFF8A4A1A2F5A8A8800000000000026
:104E900000000000000000000000000000F888880A
:104EA0008888FF88888888F80000000000000000DB
:104EB000000000000000000000000000001F0808C3
:104EC00008087F888888889F80F000000000000024
:104ED00000000000000000000000001010D0FF9053
:104EE0001000FE020202FE000000000000000000B0
:104EF0000000000000000000000000040300FF00AC
:104F000083601F0000003F40407800000000000068
:104F10000000000000000000000000807000FF2082
:104F20001004040404FC0404040400000000000055
:104F3000000000000000000000000080601807086A
:104F400030000040807F00000000000000000000F2
:104F500000000000000000000000004040424458F3
:104F6000C0407F40C0504846404000000000000064
:104F700000000000000000000000008080402018B9
:104F8000070000003F404040407800000000000063
:104F9000000000000000000000000000202020A011
:104FA0006000FF608040201800000000000000004A
:104FB00000000000000000000000002010080601B2
:104FC00040807F0001020408101000000000000073
:104FD000000000000000000000000042422212FA1F
:104FE000969292929292F202020200000000000059
:104FF0000000000000000000000000404424140CE9
:1050000044807F0408102824424000000000000073
:1050100000000000000000000000000000FE02127E
:1050200022C202C23202FE000000000000000000A6
:10503000000000000000000000000080601F002051
:10504000100C030C30000F3040F80000000000008E
:1050500000000000000000000000000000FC24240C
:1050600024252624242424243C00000000000000E1
:10507000000000000000000000000040300F21157B
:1050800049817F00211549817F0000000000000058
:10509000000000000000000000000000BC500008FC
:1050A0000000002084010000C440000800510008F6
:1050B00084010020B40E00005841000801185A284D
:1050C0000401803241321E5A1C045A3210690432E3
:1050D0005032084BD007104BE80324DA05040114C2
:1050E0000922245184A24A0400093401020304065F
:1050F000070809293C69402C020406B7510000004A
:0400000508000131BD
:00000001FF
